:020000040800F2
:10000000900A0020E50400084105000841050008A9
:1000100041050008410500084105000800000000F6
:100020000000000000000000000000004105000882
:1000300041050008000000004105000841050008D6
:10004000410500084105000841050008311B000872
:100050004105000841050008410500084105000868
:100060004105000841050008410500084105000858
:100070004105000841050008410500084105000848
:100080004105000841050008410500084105000838
:1000900041050008410500084105000889200008C5
:1000A0004105000841050008410500084105000818
:1000B0004105000841050008410500084105000808
:1000C00041050008410500084105000841050008F8
:1000D00041050008410500084105000841050008E8
:1000E000F5220008611B00084105000841050008D1
:1000F00041050008410500084105000841050008C8
:1001000041050008410500084105000841050008B7
:1001100041050008410500084105000841050008A7
:100120004105000841050008410500084105000897
:100130004105000841050008410500084105000887
:100140004105000841050008410500084105000877
:100150004105000841050008410500084105000867
:100160004105000841050008410500084105000857
:100170004105000841050008410500084105000847
:10018000410500084105000890B484B000AF034663
:100190000A46FB711346BB710023FB60BB7903F079
:1001A00003039B000F2202FA03F3FB601649BB799D
:1001B0009B08DBB21846144ABB799B08DBB20233BA
:1001C00052F82320FB68DB431A40831C41F82320AC
:1001D0000D48BB799B08DBB21C460B4ABB799B08D8
:1001E000DBB2023352F82320F979BB7903F0030321
:1001F0009B0001FA03F31A43A31C40F8232000BF1D
:100200001037BD4690BC70470038014080B584B0BF
:1002100000AF0121102000F06BFA7C23BB60F923B2
:10022000BB800023BB810023FB803B1D1946034894
:1002300003F040F900BF1037BD4680BD00100040FC
:1002400080B586B000AF0121012000F033FA012112
:100250004FF0005000F04CFA4FF470433B61012323
:100260003B750023BB7503237B750023FB7507F1EA
:1002700010031946154800F0B7FE10233B61032315
:100280003B7503237B750023FB7507F110031946AB
:100290000F4800F0A9FE00233B6000237B60002391
:1002A000BB600023FB603B461946002000F0AAF823
:1002B0000121002000F0D8F840F2FF71002000F08A
:1002C000F7F800BF1837BD4680BD00BF000C0240E4
:1002D000000002400000000098B500AF01213C483A
:1002E00003F052F901213A4803F06EF90346002B5E
:1002F00068D04FF48041374800F020FF364B1B6830
:10030000184604F04FFF03460C461846214603F0FA
:1003100091FC2DA3D3E9002304F098FF03460C467B
:100320001846214605F054FA03469BB219460020B0
:1003300000F0BEF8284B1B682849184605F0C4FB9E
:100340000346002B0ED0264B1B68012B0AD1224BF3
:100350001B684FF07E51184605F060FA03461A46B6
:100360001D4B1A601C4B1B681C49184605F0C0FB4E
:100370000346002B02D01A4B00221A60184B1B6850
:10038000002B0AD1144B1B684FF07E51184605F024
:1003900043FA03461A46104B1A600F4B1B684FF086
:1003A0000001184605F086FB0346002B02D00C4BDB
:1003B00001221A600121064803F022F900210448B5
:1003C00003F0E2F800BF98BD0000000000FEAF405F
:1003D00000100040000C02403800002000F07F4573
:1003E0000000002080B483B000AF0346FB71044AD4
:1003F000FB79136000BF0C37BD4680BC704700BF5F
:1004000020000E4280B485B000AF786039600023D0
:10041000FB600023BB60134B1B68FB6040F6FE7261
:100420007B6802FA03F3DB43FA681340FB603B6826
:100430001A683B685B681A433B689B681A433B68D1
:10044000DB681343BB60BA687B6802FA03F3FA689F
:100450001343FB60034AFB68136000BF1437BD46BB
:1004600080BC70470074004080B483B000AF7860F7
:100470000B46FB70FB78002B09D00C490B4B1A681C
:1004800001207B6800FA03F313430B6009E007497E
:10049000064B1A6801207B6800FA03F3DB43134024
:1004A0000B6000BF0C37BD4680BC70470074004035
:1004B00080B485B000AF78600B467B800023FB6082
:1004C000074BFB60FA687B6813440833FB60FB68EA
:1004D0001A467B88136000BF1437BD4680BC704746
:1004E0000074004080B582B000AF104B7B60104BB1
:1004F0003B6007E03B681A1D3A607A68111D79601D
:1005000012681A603B680B4A9342F3D30A480B49BE
:100510004FF000028842B8BF40F8042BFADB00F02D
:1005200013F800BF0837BD4680BD00BF1862000841
:100530000000002038000020380000209002002039
:1005400080B400AFFEE700BF80B500AF00F008FE4A
:1005500000F034FE01F034FC0121102000F0AAF874
:100560000121012000F0A6F8FFF76AFE01F028FC47
:1005700001F040FC01F080FC01F0C0FC01F000FD46
:1005800001F040FD382003F0EBF8FFF73FFE0020BC
:1005900000F00AFF072001F065F90E4B0C225A719A
:1005A0000C4B00221A710B4B05221A70094B1022BA
:1005B0005A72084B06221A72064B1E22DA71054B3C
:1005C00006229A710021034800F07EFF02F0B2F982
:1005D000FCE700BF6400002080B483B000AF034696
:1005E000FB710C4B00221A700A4B00221A70FB7927
:1005F000012B02D0042B04D007E0064B01221A7015
:1006000003E0044B05221A7000BF00BF0C37BD4643
:1006100080BC70477038024080B483B000AF03469E
:10062000FB71044AFB79136000BF0C37BD4680BCE8
:10063000704700BF800E474280B485B000AF78603D
:100640000023FB607B6803F44073B3F5407F11D156
:100650000F4B9B68FB60FB6823F4F813FB607B681F
:1006600023F0704323F44073FA681343FB60084A95
:10067000FB6893600649064B1A6F7B68C3F30B0354
:1006800013430B6700BF1437BD4680BC704700BFE3
:100690000038024080B483B000AF0346FB71044AC7
:1006A000FB79136000BF0C37BD4680BC704700BFAC
:1006B0003C0E474280B483B000AF78600B46FB70BD
:1006C000FB78002B06D00949084B1A6B7B68134353
:1006D0000B6306E00549054B1A6B7B68DB4313404F
:1006E0000B6300BF0C37BD4680BC7047003802402A
:1006F00080B483B000AF78600B46FB70FB78002BB2
:1007000006D00949084B1A6C7B6813430B6406E05A
:100710000549054B1A6C7B68DB4313400B6400BF33
:100720000C37BD4680BC70470038024080B483B0AF
:1007300000AF78600B46FB70FB78002B06D00949B0
:10074000084B5A6C7B6813434B6406E00549054B24
:100750005A6C7B68DB4313404B6400BF0C37BD46CB
:1007600080BC70470038024080B487B000AF0346B9
:10077000FB710023FB6000237B610023FB74FB798A
:100780005B09DBB2FB60FB68012B03D1124B1B68DA
:100790007B6109E0FB68022B03D10F4B1B6F7B6170
:1007A00002E00D4B5B6F7B61FB7903F01F03FB6085
:1007B0007A69FB6822FA03F303F00103002B02D0ED
:1007C0000123FB7401E00023FB74FB7C18461C37FB
:1007D000BD4680BC704700BF0038024080B5A8B05D
:1007E00000AF0021954800F0B1FF944B5B79C7F84A
:1007F0009C3007F170030A221946D7F89C0005F0D7
:10080000A3F98E4B1B79C7F8983007F160030A22D1
:100810001946D7F8980005F097F9884B1B78C7F868
:10082000943007F150030A221946D7F8940005F0D6
:100830008BF9824B5B7A03F5FA63C7F8903007F1C6
:1008400040030A221946D7F8900005F07DF97B4B4A
:100850001B7AC7F88C3007F130030A221946D7F803
:100860008C0005F071F9754BDB79C7F8883007F11A
:1008700020030A221946D7F8880005F065F9704B65
:100880001B68C7F8843007F110030A221946D7F80D
:10089000840005F059F96B4B1B68C7F880303B4664
:1008A0000A221946D7F8800005F04EF903F014F833
:1008B0000321052003F0E0F800220121624803F043
:1008C0009FF903211E2003F0D7F807F170030022DF
:1008D0000121184603F094F903212A2003F0CCF8F3
:1008E00000220121594803F08BF90321302003F045
:1008F000C3F807F1600300220121184603F080F9D4
:1009000003213C2003F0B8F8002201214F4803F0F6
:1009100077F90321422003F0AFF807F150030022DA
:100920000121184603F06CF90D21052003F0A4F80D
:1009300000220121464803F063F90D21282003F02D
:100940009BF807F1100300220121184603F058F923
:100950000D21342003F090F8002201213B4803F0E0
:100960004FF90D213A2003F087F83B460022012180
:10097000184603F045F91A21052003F07DF80122FD
:100980000121344803F03CF91A21192003F074F8CE
:1009900007F1400301220121184603F031F91A2121
:1009A000292003F069F8012201212B4803F028F9DE
:1009B0001A212D2003F060F807F1300301220121F4
:1009C000184603F01DF91A21362003F055F80122CC
:1009D0000121214803F014F91A213B2003F04CF8BF
:1009E00007F1200301220121184603F009F9202113
:1009F000052003F041F801220121184803F000F915
:100A0000174B1B68002B09D12021392003F034F843
:100A100001220121134803F0F3F808E020213920D6
:100A200003F02AF8012201210F4803F0E9F802F04F
:100A300085FF00BFA037BD4680BD00BF6400002019
:100A40003000002034000020CC5B0008D45B00089C
:100A5000D85B0008E05B0008E85B0008EC5B00087E
:100A600048000020FC5B0008045C000880B59AB0D8
:100A700000AF4E4B1B687B6607F144030A22194600
:100A8000786E05F061F84A4B1B683B6607F134034A
:100A90000A221946386E05F057F8464B1B6803F5D5
:100AA000FA63FB6507F124030A221946F86D05F085
:100AB0004BF8414B1B68BB6507F114030A2219462A
:100AC000B86D05F041F83D4B1B687B653B1D0A2264
:100AD0001946786D05F038F802F0FEFE0321052076
:100AE00002F0CAFF00220121354803F089F80321F2
:100AF0001E2002F0C1FF07F1440300220121184625
:100B000003F07EF803212A2002F0B6FF0022012123
:100B10002C4803F075F80321302002F0ADFF07F1F7
:100B2000340300220121184603F06AF81A21052037
:100B300002F0A2FF01220121234803F061F81A21EB
:100B4000192002F099FF07F1240301220121184620
:100B500003F056F81A21292002F08EFF012201210C
:100B60001A4803F04DF81A212D2002F085FF07F1F5
:100B7000140301220121184603F042F81A213620FD
:100B800002F07AFF01220121104803F039F81A21FE
:100B90003B2002F071FF3B1D01220121184603F0AA
:100BA0002FF800BF6837BD4680BD00BF5800002049
:100BB0005C0000204C000020500000205400002069
:100BC000CC5B0008D45B0008E05B0008E85B000831
:100BD00080B58AB000AF304B1B687B6207F1100311
:100BE0000A221946786A04F0AFFF2C4B1B683B625F
:100BF0003B460A221946386A04F0A6FF02F06CFE52
:100C00000321052002F038FF00220121244802F0D0
:100C1000F7FF0321292002F02FFF07F11003002224
:100C20000121184602F0ECFF0321352002F024FFD9
:100C3000002201211B4802F0E3FF03213B2002F0C8
:100C40001BFF3B4600220121184602F0D9FF20215C
:100C5000052002F011FF01220121134802F0D0FF0C
:100C6000124B1B68002B09D12021392002F004FF10
:100C7000012201210E4802F0C3FF08E020213920A3
:100C800002F0FAFE012201210A4802F0B9FF00BF7A
:100C90002837BD4680BD00BF300000203400002052
:100CA000085C0008D45B0008EC5B000848000020EA
:100CB000FC5B0008045C000880B584B002AF78607B
:100CC0000B46FB707B68184A93420AD1F9780023DF
:100CD00001934FF48273009320230022124800F006
:100CE0004BF87B68114A93420AD1F97800230193AB
:100CF0004FF482730093202300220C4800F03CF84C
:100D00007B680B4A93420AD1F978002301934FF490
:100D10008273009320230022054800F02DF800BFC5
:100D20000837BD4680BD00BF00300140003800409C
:100D3000003C004080B483B000AF78600B46FB708D
:100D4000FB789AB27B689A8100BF7B681B899BB253
:100D500003F00303002BF8D07B681B899BB203F0E0
:100D60008003002BF1D17B689B899BB2DBB21846D4
:100D70000C37BD4680BC704780B588B000AF786046
:100D8000084611461A460346FB700B46BB701346D5
:100D90003B8007F10C03184600F04AFF7B68394A94
:100DA00093420BD1384A384B5B6C43F48053536405
:100DB000FB78184600F06EF800233B827B68334ACC
:100DC00093420BD1304A304B1B6C43F48043136485
:100DD000FB78184600F08EF800233B827B682C4A93
:100DE00093420BD1284A284B1B6C43F400431364F5
:100DF000FB78184600F0C8F800233B823B883B8311
:100E00000023BB81BB8D7B833B8DFB81BB78002B9B
:100E100004D100237B820023BB8216E0BB78012B28
:100E200004D100237B820123BB820EE0BB78022B1E
:100E300004D102237B820023BB8206E0BB78032B14
:100E400003D102237B820123BB824FF40073FB8218
:100E50007B681B889BB223F040039AB27B681A80A0
:100E600007F10C031946786800F09EFE7B681B882A
:100E70009BB243F040039AB27B681A8000BF2037D0
:100E8000BD4680BD003001400038024000380040BF
:100E9000003C004080B584B002AF0346FB71FB7993
:100EA000002B09D105230193032300930023002283
:100EB000E0210D4801F0D0FDFB79012B09D105237C
:100EC000019303230093002300223821074801F0F7
:100ED000C3FDFB79032B02D10548AFF3008000BFAF
:100EE0000837BD4680BD00BF00000240000402403C
:100EF0000030014080B584B002AF0346FB71FB793E
:100F0000002B14D105230193032300930023002217
:100F10004FF48061184801F09FFD052301930323DE
:100F20000093002300220C21144801F095FDFB7969
:100F3000012B0AD1052301930323009300230022F0
:100F40004FF460410C4801F087FDFB79022B09D179
:100F50000523019303230093002300220D21084859
:100F600001F07AFDFB79032B02D10648AFF3008034
:100F700000BF0837BD4680BD0004024000080240A3
:100F8000002002400038004080B584B002AF034624
:100F9000FB71FB79002B09D10623019303230093F6
:100FA0000023002238210D4801F056FDFB79012B6A
:100FB0000AD10623019303230093002300224FF458
:100FC000E051074801F048FDFB79032B02D10548A9
:100FD000AFF3008000BF0837BD4680BD000402406B
:100FE00000080240003C004080B487B000AF786049
:100FF000396000237B6100233B610023FB600023F9
:101000007B6176E001227B6902FA03F33B613B6876
:101010001A683B691340FB60FA683B699A4265D1E4
:101020007B681A687B695B00032101FA03F3DB43E9
:101030001A407B681A607B681A683B681B791946FE
:101040007B695B0001FA03F31A437B681A603B6813
:101050001B79012B03D03B681B79022B2ED17B68B7
:101060009A687B695B00032101FA03F3DB431A40B2
:101070007B689A607B689A683B685B7919467B69F4
:101080005B0001FA03F31A437B689A607B685A6835
:101090007B699BB2012101FA03F3DB431A407B68B1
:1010A0005A607B685A683B689B7919467B699BB29A
:1010B00001FA03F39BB21A437B685A607B68DA68D3
:1010C0007B699BB25B00032101FA03F3DB431A4007
:1010D0007B68DA607B68DA683B68DB7919467B6994
:1010E0005B0001FA03F31A437B68DA607B69013322
:1010F0007B617B690F2B85D900BF1C37BD4680BC47
:10110000704700BF80B483B000AF78600B467B802F
:101110007B687A881A8300BF0C37BD4680BC704755
:1011200080B483B000AF78600B467B807B687A88A0
:101130005A8300BF0C37BD4680BC704780B483B073
:1011400000AF78600B467B807B685A697B885A4089
:101150007B685A6100BF0C37BD4680BC704700BF3A
:1011600080B500AF124A124B1B6843F001031360B5
:101170000F4B00229A600E4A0D4B1B6823F08473BC
:1011800023F4803313600A4B0A4A5A60084A084B1A
:101190001B6823F480231360054B0022DA6000F003
:1011A00089F8054B4FF000629A6000BF80BD00BF18
:1011B000003802401030002400ED00E080B487B019
:1011C00000AF00233B6100237B610223FB6000230F
:1011D000BB6002237B60324B9B6803F00C033B61D6
:1011E0003B69042B07D0082B09D0002B3FD12D4B96
:1011F0002D4A1A603FE02B4B2C4A1A603BE0284BEB
:101200005B6803F480039B0DBB60254B5B6803F0B8
:101210003F037B60BB68002B0DD0244A7B68B2FB88
:10122000F3F21F4B596847F6C0730B409B0903FB51
:1012300002F37B610CE01C4A7B68B2FBF3F2184BB3
:10124000596847F6C0730B409B0903FB02F37B61AF
:10125000134B5B6803F440331B0C01335B00FB60F2
:101260007A69FB68B2FBF3F30E4A136003E00D4B9F
:101270000D4A1A6000BF0A4B9B6803F0F0031B097C
:101280000B4AD35CDBB23B61064B1A683B6922FA1E
:1012900003F3044A136000BF1C37BD4680BC70478F
:1012A00000380240040000200024F40040787D0152
:1012B0000800002080B483B000AF00237B600023CF
:1012C0003B60354A344B1B6843F480331360324B28
:1012D0001B6803F400333B607B6801337B603B6831
:1012E000002B03D17B68B3F5A06FF0D12A4B1B68AC
:1012F00003F40033002B02D001233B6001E0002304
:101300003B603B68012B42D1234A234B1B6C43F0CB
:1013100080531364214A214B1B6843F480431360BC
:101320001D4A1D4B9B6893601B4A1B4B9B6843F4F3
:1013300000439360184A184B9B6843F4A053936092
:10134000154B174A5A60144A134B1B6843F08073BD
:10135000136000BF104B1B6803F00073002BF9D023
:10136000104B40F205621A600B4A0B4B9B6823F04E
:1013700003039360084A084B9B6843F002039360A1
:1013800000BF054B9B6803F00C03082BF9D100BF8D
:101390000C37BD4680BC70470038024000700040EA
:1013A00019544007003C024080B588B000AF0346A6
:1013B000FB710123FB7701214FF08050FFF798F973
:1013C0000120FFF70FF8132001F09AFFB861BB6905
:1013D00044F22132934220D1394B44F221321A6037
:1013E000FB79002B02D1002000F000FA002001F070
:1013F000ABFC01F009FD012001F0A6FC4FF4804098
:1014000002F004F82F4B4FF480025A6107F10803F1
:101410000021184600F09AF946E0BB6941F23422F7
:10142000934220D1264B41F234221A60FB79002BE3
:1014300002D1002000F0DAF9002001F085FC01F073
:10144000E3FC012001F080FC4FF4804001F0DEFF5E
:101450001C4B4FF480025A6107F108030021184623
:1014600000F074F920E0164B00221A600023FB778D
:10147000FB79184600F0BAF90123FB730123BB7313
:1014800001233B7400237B7400237B7300233B7395
:1014900000233B7207F108030021184600F014F8FE
:1014A000074B41F234221A60FB7F002B01D100234D
:1014B00001E0034B1B6818462037BD4680BD00BFC6
:1014C0003C000020003C014090B587B000AF786040
:1014D0000B46FB70FB78012B77D17B68DB791B090E
:1014E000DBB21A46920013445B00DAB27B68DB7908
:1014F00003F00F03DBB21344DBB2FB737B681B7A90
:101500001B09DBB21A46920013445B00DAB27B6817
:101510001B7A03F00F03DBB21344DBB23B747B682E
:101520005B7A1B09DBB21A46920013445B00DAB205
:101530007B685B7A03F00F03DBB21344DBB27B748E
:101540007B685B791B09DBB21A46920013445B008F
:10155000DAB27B685B7903F00F03DBB21344DBB2D2
:101560007B737B681B791B09DBB21A46920013441C
:101570005B00DAB27B681B7903F00F03DBB2134424
:10158000DBB23B737B681B781B09DBB21A46920007
:1015900013445B00DAB27B681B7803F00F03DBB205
:1015A0001344DBB23B727B689B791B09DBB21A46A2
:1015B000920013445B00DAB27B689B7903F00F035F
:1015C000DBB21344DBB2BB7314E07B68DB79FB73E3
:1015D0007B681B7A3B747B685B7A7B747B685B7986
:1015E0007B737B681B793B737B681B783B727B68E2
:1015F0009B79BB737B7C632B4BD83B7C002B48D007
:101600003B7C0C2B45D8FB7B002B42D0F97B7B7CB1
:1016100003F00303002B0ED17B7C03F5FA62454BEC
:1016200083FB02035811D317C31A642000FB03F392
:10163000D31A002B0FD17B7C03F5FA623D4B83FB61
:101640000203D811D317C31A4FF4C87000FB03F379
:10165000D31A002B01D1012200E000223B7C581E4E
:10166000354C13465B0013449B00234403441B7812
:1016700099420ED87B7B172B0BD83B7B3B2B08D892
:101680003B7A3B2B05D8BB7B002B02D0BB7B072BC7
:1016900001D901234AE07B685A79284B1A707B688C
:1016A0001A79264B5A707B681A78244B9A707B689B
:1016B000DA79234B9A707B681A7A214B5A707B68CF
:1016C0005A7A1F4BDA707B689A791D4B1A701D4B42
:1016D00000221A601B4B1F225A601A4B40F2FF3245
:1016E0009A60184801F0F4FAFB78012B04D11349F1
:1016F000012001F0C3FB03E01049002001F0BEFB14
:10170000FB78012B04D10E49012001F08BFC03E092
:101710000B49002001F086FC0B4B1B68002B04D00A
:1017200044F22131132001F0D1FD002318461C376B
:10173000BD4690BD1F85EB511800002074000020AD
:1017400084000020780000203C00002080B584B098
:1017500000AF78600B46FB70FB78002B04D120496A
:10176000002001F00DFC03E01D49012001F008FC00
:101770001B4B1A787B685A71194B5A787B681A711F
:10178000174B9A787B681A70164B9B6A9AB27B68E3
:101790005A80FB78002B04D11349002001F0C8FCCB
:1017A00003E01149012001F0C3FC0F4BDA787B689C
:1017B0005A720D4B5A787B681A720B4B9A787B6879
:1017C000DA71094B1A787B689A71786800F0ECF846
:1017D000F8607B68FA68DA6000BF1037BD4680BDEC
:1017E00074000020002800408400002080B582B0F2
:1017F00000AF0346FB71FB79002B0ED10120FEF7F1
:101800000BFF00BF6120FEF7AFFF0346002BF9D0AE
:101810004FF40070FEF710FF10E0FB79012B0DD1A3
:101820000120FEF7D9FE00BF4120FEF79DFF0346D1
:10183000002BF9D04FF48070FEF7FEFE0120FEF77A
:1018400029FF002001F080FA01F0DEFA012001F00A
:101850007BFA41F23421132001F038FD00BF083734
:10186000BD4680BD80B584B000AF0346FB71494BD7
:101870004FF480025A61002001F0E0FC00214FF497
:10188000804001F053FD444B03221A70424B042266
:101890005A70414B00229A703F4B0022DA703E484A
:1018A00001F07AF83D4B4FF480021A603B4B002266
:1018B0001A713A4B08225A71384B00229A713748F4
:1018C00000F0DAF9FB79002B5FD0334B0122DA709C
:1018D000314801F061F8314B01229A712F4800F034
:1018E000CBF9002001F0AAFCFB79012B02D12C4B93
:1018F000FB603CE0FB79022B02D12A4BFB6036E017
:10190000FB79032B03D14EF6FF73FB602FE0FB79CD
:10191000042B03D149F6FF73FB6028E0FB79052B0C
:1019200003D144F6FF73FB6021E0FB79062B03D162
:1019300041F6FF73FB601AE0FB79072B03D140F6F9
:10194000FF73FB6013E0FB79082B03D140F2FF73B8
:10195000FB600CE0FB79092B03D140F2FF33FB6005
:1019600005E0FB790A2B02D140F2FF13FB60012056
:1019700001F02CFCF86801F049FC01214FF4804093
:1019800001F0D4FC012001F059FC00BF1037BD4626
:1019900080BD00BF003C0140880000208C0000207A
:1019A000FFBF0300FFDF010080B487B000AF7860A5
:1019B00000237B610023FB607B685B7A9BB203F5AD
:1019C000FA637B817B8940F2B172934201D8002394
:1019D00096E040F2B2737B8229E07B8A03F0030336
:1019E0009BB2002B0BD17B8A484AA2FB03125209FF
:1019F000642101FB02F29B1A9BB2002B0CD17B8A63
:101A0000424AA2FB0312D2094FF4C87101FB02F251
:101A10009B1A9BB2002B02D14FF4B77301E040F246
:101A20006D137A6913447B617B8A01337B827A8AE6
:101A30007B899A42D1D301237B8232E07B8903F0F8
:101A400003039BB2002B0BD17B89304AA2FB03120C
:101A50005209642101FB02F29B1A9BB2002B0CD1AC
:101A60007B892A4AA2FB0312D2094FF4C87101FBF9
:101A700002F29B1A9BB2002B01D1012200E000224E
:101A80007B8A591E224813465B0013449B00034483
:101A90000B441B781A467B6913447B617B8A0133B4
:101AA0007B827B681B7A9BB27A8A9A42C6D37B6818
:101AB000DB791A467B691344013B7B617B69154ADC
:101AC00002FB03F3FB607B685B791A464FF46163AA
:101AD00003FB02F31A46FB681344FB607B681B7927
:101AE0001A4613461B019B1A9B001A46FB681344B7
:101AF000FB607B681B781A46FB681344FB60FB683D
:101B000018461C37BD4680BC704700BF1F85EB518F
:101B1000180000208051010080B400AF00BFBD4616
:101B200080BC704780B400AF00BFBD4680BC70472A
:101B300080B500AF4FF4804001F034FC0346002B29
:101B400005D04FF4804001F061FC00F013FF034B1F
:101B50004FF480025A6100BF80BD00BF003C0140CD
:101B600080B500AF4FF4805001F01CFC0346002B01
:101B700005D04FF4805001F049FCFFF7CDFF4FF442
:101B8000005001F00FFC0346002B05D04FF400502D
:101B900001F03CFCFFF7C6FF024B4FF400325A61E4
:101BA00000BF80BD003C014080B485B000AF7860CC
:101BB00039600023FB817B681B88FB81FB8903F470
:101BC0004153FB813B681A883B685B8813439AB298
:101BD0003B689B8813439AB23B68DB8813439AB2F5
:101BE0003B681B8913439AB23B685B8913439AB2E3
:101BF0003B689B8913439AB23B68DB8913439AB2D3
:101C0000FB891343FB817B68FA891A807B689B8B75
:101C10009BB223F400639AB27B689A833B681A8A6A
:101C20007B681A8200BF1437BD4680BC704700BF76
:101C300080B483B000AF78607B6800221A807B6834
:101C400000225A807B6800229A807B680022DA801A
:101C50007B6800221A817B6800225A817B680022FF
:101C60009A817B680022DA817B6807221A8200BF92
:101C70000C37BD4680BC704780B485B000AF78603B
:101C80000023FB60344BFB607B689B79002B4FD0BB
:101C90003149314B1A687B681B68DB4313400B608A
:101CA0002D492D4B5A687B681B68DB4313404B6002
:101CB0007B681B791A46FB681344FB60FB68FA6873
:101CC00011687A6812680A431A602349224B9A689D
:101CD0007B681B68DB4313408B601F491E4BDA682F
:101CE0007B681B68DB431340CB607B685B79102B00
:101CF0000ED11949184B9A687B681B6813438B6097
:101D00001549154BDA687B681B681343CB601DE0EF
:101D1000114BFB607B685B791A46FB681344FB60E0
:101D2000FB68FA6811687A6812680A431A600DE065
:101D30007B681B791A46FB681344FB60FB68FA68F2
:101D400011687A681268D2430A401A6000BF1437DB
:101D5000BD4680BC704700BF003C014080B485B0E8
:101D600000AF78600023FB730023BB600C4B1A6844
:101D70007B681340BB600A4B5A697B681340002B99
:101D800005D0BB68002B02D00123FB7301E00023C8
:101D9000FB73FB7B18461437BD4680BC704700BF01
:101DA000003C014080B483B000AF7860034A7B6898
:101DB000536100BF0C37BD4680BC7047003C0140FA
:101DC00080B584B000AF01210120FEF791FC7C2397
:101DD000BB6049F23F03BB800023BB810023FB8033
:101DE0003B1D19464FF0804001F064FB1037BD46A3
:101DF00080BD00BF80B586B000AF01210220FEF794
:101E000059FC01214FF48040FEF790FC00233B7504
:101E10000023BB754FF400733B610123FB75032363
:101E20007B7507F1100319461248FFF7DDF8092109
:101E30000120FEF7A9F94FF40073BB600123BB73C7
:101E400000233B7310237B7307F108031846FFF749
:101E500013FF17233B7100237B710123BB71012307
:101E6000FB713B1D184600F097FD00BF1837BD46BB
:101E700080BD00BF0004024080B586B000AF0121E4
:101E80000220FEF717FC01214FF48040FEF74EFCC4
:101E900000233B750023BB754FF400633B610123B6
:101EA000FB7503237B7507F1100319461248FFF7F2
:101EB0009BF80B210120FEF767F94FF40063BB602C
:101EC0000123BB7300233B7310237B7307F10803CB
:101ED0001846FFF7D1FE28233B7100237B710123B5
:101EE000BB710123FB713B1D184600F055FD00BF7F
:101EF0001837BD4680BD00BF0004024080B586B0E3
:101F000000AF01210220FEF7D5FB01214FF48040F4
:101F1000FEF70CFC00233B750023BB754FF4805388
:101F20003B610123FB7503237B7507F11003194601
:101F30001248FFF759F80C210120FEF725F94FF45C
:101F40008053BB600123BB7300233B7310237B735F
:101F500007F108031846FFF78FFE28233B71002383
:101F60007B710123BB710123FB713B1D184600F0FF
:101F700013FD00BF1837BD4680BD00BF00040240FE
:101F800080B586B000AF01210220FEF793FB01214E
:101F90004FF48040FEF7CAFB00233B750023BB755E
:101FA0004FF400533B610123FB7503237B7507F15D
:101FB000100319461248FFF717F80D210120FEF70C
:101FC000E3F84FF40053BB600123BB7300233B7362
:101FD00010237B7307F108031846FFF74DFE2823F3
:101FE0003B7100237B710123BB710123FB713B1DFE
:101FF000184600F0D1FC00BF1837BD4680BD00BFB9
:102000000004024080B586B000AF01210220FEF737
:1020100051FB01214FF48040FEF788FB00233B7504
:102020000023BB754FF480433B610123FB75032301
:102030007B7507F1100319461248FEF7D5FF0E21F4
:102040000120FEF7A1F84FF48043BB600123BB736E
:1020500000233B7310237B7307F108031846FFF737
:102060000BFE28233B7100237B710123BB710123ED
:10207000FB713B1D184600F08FFC00BF1837BD46B2
:1020800080BD00BF0004024080B500AF4FF4007077
:10209000FFF764FE0346002B00F0088101214FF09A
:1020A000804001F071FA01214FF0804001F08CFA7C
:1020B0000346002B00F0F6807D4B1B68012B40F09F
:1020C000A98000217B48FFF741FB7B4B1B68002B5D
:1020D0001CD17A4B1B68172B04DC784B1B6801332F
:1020E000764A1360754B1B68182B02D1734B002284
:1020F0001A60FEF7BBFC2021052001F0BDFC012287
:1021000001216F4801F07CFD01F018FC6A4B1B684F
:10211000012B1CD16B4B1B683B2B04DC694B1B68F0
:102120000133684A1360674B1B683C2B02D1654B37
:1021300000221A60FEF79AFC2021052001F09CFC89
:1021400001220121604801F05BFD01F0F7FB5A4BD1
:102150001B68022B1CD15D4B1B681F2B04DC5B4BE7
:102160001B680133594A1360584B1B68202B02D15E
:10217000564B01221A60FEF779FC2021052001F060
:102180007BFC01220121524801F03AFD01F0D6FB0F
:10219000494B1B68032B1CD14E4B1B680C2B04DCDA
:1021A0004C4B1B6801334B4A13604A4B1B680D2B89
:1021B00002D1484B01221A60FEF758FC202105206D
:1021C00001F05AFC01220121434801F019FD01F000
:1021D000B5FB394B1B68042B1CD1404B1B68632B90
:1021E00004DC3E4B1B6801333C4A13603B4B1B68CD
:1021F000642B02D1394B01221A60FEF737FC2021F3
:10220000052001F039FC01220121354801F0F8FCDC
:1022100001F094FB264B1B68022B39D1264B1B681F
:10222000002B18D12F4B1B6801332E4A13602D4B06
:102230001B68182B02D12B4B00221A60FEF7C8FC3A
:102240000D21052001F018FC01220121264801F092
:10225000D7FC01F073FB184B1B68012B18D1234BE3
:102260001B680133214A1360204B1B683C2B02D1B1
:102270001E4B00221A60FEF7ABFC0D21052001F079
:10228000FBFB012201211A4801F0BAFC01F056FBC8
:1022900001214FF0804001F0B3F900214FF0804060
:1022A00001F072F94FF40070FFF77CFD00BF80BDB4
:1022B000400000206400002044000020580000205E
:1022C000105C00085C000020205C00085400002026
:1022D000305C000850000020405C00084C000020EA
:1022E000505C0008300000205C5C000834000020D6
:1022F0006C5C000880B500AF4FF40060FFF72EFD66
:102300000346002B00F0C88001214FF0804001F00F
:102310003BF901214FF0804001F056F90346002BB4
:1023200000F0B6809B4B1B68012B79D19A4B1B6840
:102330000133994A1360984B1B68012B0CD1FEF7AF
:1023400095FB2021052001F097FB012201219348F4
:1023500001F056FC01F0F2FA8F4B1B68022B0CD1F6
:10236000FEF784FB2021052001F086FB01220121DC
:102370008B4801F045FC01F0E1FA874B1B68032B09
:102380000CD1FEF773FB2021052001F075FB012223
:102390000121844801F034FC01F0D0FA7E4B1B6827
:1023A000042B0CD1FEF762FB2021052001F064FB19
:1023B000012201217C4801F023FC01F0BFFA764B99
:1023C0001B68052B2CD1FEF751FB2021052001F0C5
:1023D00053FB01220121754801F012FC01F0AEFA15
:1023E0006D4B00221A60724B1B68DAB2714B5A7146
:1023F000714B1B68DAB26F4B1A71704B1B68DAB203
:102400006C4B5A726E4B1B68DAB26A4B1A726D4B88
:102410001B68DAB2674BDA7100216648FFF754F89F
:102420005C4B1B68022B29D15B4B1B6801335A4A5A
:102430001360594B1B68012B0CD1FEF7C9FB0D2112
:10244000052001F019FB012201215F4801F0D8FBB2
:1024500001F074FA504B1B68022B0FD1FEF7B8FB4A
:102460000D21052001F008FB01220121574801F050
:10247000C7FB01F063FA484B00221A6001214FF0BC
:10248000804001F0BDF800214FF0804001F07CF861
:102490004FF40060FFF786FC4FF48050FFF75EFCBE
:1024A0000346002B00F0A98001214FF0804001F08D
:1024B0006BF801214FF0804001F086F80346002BB5
:1024C00000F09780334B1B68022B54D1404B1B68A4
:1024D000002B28D13E4B01221A602F4B1B68012B89
:1024E0000CD1FEF775FB0D21052001F0C5FA012284
:1024F0000121354801F084FB01F020FA264B1B68CE
:10250000002B38D1FEF764FB0D21052001F0B4FA51
:10251000012201212D4801F073FB01F00FFA1E4B3F
:1025200000221A6027E02A4B00221A601A4B1B680F
:10253000012B0CD1FEF74CFB0D21052001F09CFA7C
:1025400001220121204801F05BFB01F0F7F9124B59
:102550001B68002B0FD1FEF73BFB0D21052001F07E
:102560008BFA01220121194801F04AFB01F0E6F93A
:10257000094B00221A60074B1B68002B2FD1144B0C
:102580001B68002B26D1124B01221A60FEF726F998
:1025900025E000BF4000002044000020205C00082F
:1025A000305C0008405C0008505C0008105C0008CB
:1025B00058000020640000205C0000204C00002037
:1025C00050000020540000206C5C00085C5C000897
:1025D00048000020B84B00221A60FEF7FFF80121E6
:1025E0004FF0804001F00CF800214FF0804000F0E7
:1025F000CBFF4FF48050FFF7D5FB4FF40050FFF7AF
:10260000ADFB0346002B00F00C8101214FF0804010
:1026100000F0BAFF01214FF0804000F0D5FF0346E3
:10262000002B00F0FA80A54B1B68012B40F0AB801B
:102630000021A348FFF78AF8A24B1B68002B1DD18D
:10264000A14B1B68002B04DB9F4B1B68013B9E4A80
:1026500013609D4B1B68B3F1FF3F02D19A4B1722C9
:102660001A60FEF703FA2021052001F005FA012285
:102670000121964801F0C4FA01F060F9914B1B6802
:10268000012B1DD1924B1B68002B04DB904B1B6868
:10269000013B8F4A13608E4B1B68B3F1FF3F02D1A1
:1026A0008B4B3B221A60FEF7E1F92021052001F057
:1026B000E3F901220121874801F0A2FA01F03EF975
:1026C000804B1B68022B1CD1834B1B68002B04DD45
:1026D000814B1B68013B804A13607F4B1B68002BBA
:1026E00002D17D4B1F221A60FEF7C0F92021052080
:1026F00001F0C2F901220121784801F081FA01F0CC
:102700001DF9704B1B68032B1CD1754B1B68002BEC
:1027100004DD734B1B68013B714A1360704B1B68EF
:10272000002B02D16E4B0C221A60FEF79FF920217C
:10273000052001F0A1F9012201216A4801F060FAA7
:1027400001F0FCF85F4B1B68042B1CD1664B1B6827
:10275000002B04DD644B1B68013B634A1360624B32
:102760001B68002B02D1604B63221A60FEF77EF9D2
:102770002021052001F080F9012201215B4801F0B0
:102780003FFA01F0DBF84D4B1B68022B3BD14D4B60
:102790001B68002B19D1564B1B68013B544A136030
:1027A000534B1B68B3F1FF3F02D1514B17221A6004
:1027B000FEF70EFA0D21052001F05EF9012201213C
:1027C0004C4801F01DFA01F0B9F83E4B1B68012B93
:1027D00019D1494B1B68013B474A1360464B1B68A4
:1027E000B3F1FF3F02D1444B3B221A60FEF7F0F9F0
:1027F0000D21052001F040F9012201213F4801F09F
:10280000FFF901F09BF801214FF0804000F0F8FE45
:1028100000214FF0804000F0B7FE4FF40050FFF76A
:10282000C1FA4FF48040FFF799FA0346002B7DD0A0
:1028300001214FF0804000F0A7FE01214FF08040C1
:1028400000F0C2FE0346002B6CD01C4B1B6801330A
:102850001A4A1360194B1B68032B02D1174B002235
:102860001A60164B1B68012B0FD1164B00221A6001
:10287000FEF7FCF82021052001F0FEF801220121DD
:10288000124801F0BDF901F059F80C4B1B68022BFE
:1028900036D10C4B00221A60FEF79AF90D21052063
:1028A00001F0EAF801220121124801F0A9F901F032
:1028B00045F801F043F823E04800002040000020E4
:1028C000640000204400002058000020105C000834
:1028D0005C000020205C000854000020305C0008F0
:1028E00050000020405C00084C000020505C0008B4
:1028F000300000207C5C0008340000206C5C000884
:102900000B4B1B68002B03D1FDF768FF01F016F895
:1029100001214FF0804000F073FE00214FF0804015
:1029200000F032FE4FF48040FFF73CFA00BF80BD5C
:102930004000002080B500AF0A4B1B68012B0FD16F
:10294000094B5B791A46094B1B689A4208D1064B22
:102950001B791A46064B1B689A4201D1FDF7BCFC55
:1029600000BF80BD4800002064000020300000202F
:102970003400002080B500AF00210548FEF7E6FED8
:10298000044B1B68002B01D1FDF728FF00BF80BD61
:10299000640000204000002080B485B000AF786063
:1029A0000023FB730023BB730F237B737B68DB78EF
:1029B000002B38D0264BDB68DB4303F4E0631B0AB3
:1029C000FB73FB7BC3F10403BB737A7BFB7B42FA93
:1029D00003F37B737B685B781A46BB7B02FA03F3D5
:1029E000FB737B689A787B7B1340DAB2FB7B1343E3
:1029F000FB73FB7B1B01FB73164A7B681B7813443C
:102A0000FA7B83F80023134A7B681B785B09DBB2EF
:102A100018467B681B7803F01F03012101FA03F3BA
:102A200042F820300FE00B497B681B785B09DBB272
:102A300018467B681B7803F01F0301229A4000F1BF
:102A4000200341F8232000BF1437BD4680BC7047E7
:102A500000ED00E000E100E080B586B002AF7860F4
:102A6000084611461A4603467B800B467B70134688
:102A70003B707B88002B3ED0786800F041F8002343
:102A8000FB6029E07A88FB6842FA03F303F0010354
:102A9000002B1DD0FB68DA08FB68D9087B68083179
:102AA00053F82130F96801F0070189000F2000FA7E
:102AB00001F1C9430B40387FF96801F00701890033
:102AC00000FA01F119437B68083243F8221000E054
:102AD00000BFFB680133FB60FB680F2BD2D97A780B
:102AE00079883B7E01933B780093134602227868F5
:102AF00000F07EF800E000BF1037BD4680BD00BF8B
:102B000080B483B000AF78607B682F4A934205D1D0
:102B10002E4A2E4B1B6B43F0010313637B682C4A38
:102B2000934205D1294A294B1B6B43F002031363DF
:102B30007B68284A934205D1244A244B1B6B43F0FF
:102B4000040313637B68244A934205D11F4A1F4B39
:102B50001B6B43F0080313637B68204A934205D143
:102B60001A4A1A4B1B6B43F0100313637B681C4A11
:102B7000934205D1154A154B1B6B43F02003136399
:102B80007B68184A934205D1104A104B1B6B43F0E7
:102B9000400313637B68144A934205D10B4A0B4BE5
:102BA0001B6B43F0800313637B68104A934205D18B
:102BB000064A064B1B6B43F48073136300BF0C374C
:102BC000BD4680BC704700BF000002400038024094
:102BD0000004024000080240000C024000100240C5
:102BE0000014024000180240001C02400020024075
:102BF00080B485B000AF7860084611461A46034697
:102C00007B800B467B7013463B700023FB7356E0C2
:102C10007A88FB7B42FA03F303F00103002B4AD0CE
:102C20007B681A68FB7B5B00032101FA03F3DB433B
:102C300013407978FA7B520001FA02F21A437B685A
:102C40001A607B78012B02D07B78022B21D17B6824
:102C50005B68FA7B012101FA02F292B2D2431A4078
:102C60003978FB7B01FA03F39BB21A437B685A6005
:102C70007B689A68FB7B5B00032101FA03F3DB436B
:102C80001340397FFA7B520001FA02F21A437B6843
:102C90009A607B68DB68FA7B5200032101FA02F23A
:102CA000D2431340397EFA7B520001FA02F21A43F2
:102CB0007B68DA6000E000BFFB7B0133FB73FB7BCA
:102CC0000F2BA5D900BF1437BD4680BC704700BF8D
:102CD00080B584B000AF78600023FB73194BCA2223
:102CE0005A62184B53225A6200F048F80346002BF0
:102CF00002D10023FB731CE0124A124B9B6823F0A5
:102D0000400393600F490F4B9A687B681B6813431D
:102D10008B600C4A7B689B6813610A49094B1A69EE
:102D20007B685B681B0413430B6100F05FF80123B1
:102D3000FB73044BFF225A62FB7B18461037BD46DB
:102D400080BD00BF0028004080B483B000AF0346C0
:102D5000FB71FB79002B03D0074BFF225A6205E081
:102D6000054BCA225A62044B53225A6200BF0C37E9
:102D7000BD4680BC704700BF0028004080B485B0CD
:102D800000AF00237B600023FB730023BB60164B66
:102D9000DB6803F04003002B1ED1134B4FF0FF32D2
:102DA000DA60114BDB6803F04003BB607B680133E2
:102DB0007B607B68B3F5803F02D0BB68002BF0D00E
:102DC000094BDB6803F04003002B02D00123FB73A7
:102DD00004E00023FB7301E00123FB73FB7B184637
:102DE0001437BD4680BC70470028004080B400AF57
:102DF000044A044BDB6823F08003D36000BFBD4668
:102E000080BC70470028004080B485B000AF00232C
:102E10007B600023FB730023BB60174BCA225A62FE
:102E2000154B53225A62144A134BDB6823F0A0035C
:102E3000D360114BDB6803F02003BB607B68013378
:102E40007B607B68B3F5003F02D0BB68002BF0D0FD
:102E5000094BDB6803F02003002B02D00123FB7336
:102E600001E00023FB73044BFF225A62FB7B1846F0
:102E70001437BD4680BC70470028004090B585B02F
:102E800000AF786039600023FB600023FB727B6831
:102E9000002B09D1394B9B6803F04003002B14D160
:102EA0003B680022DA7010E0344B9B6803F040036B
:102EB000002B07D03B681B78184600F0DFFA03466A
:102EC000FB6002E03B680022DA707B68002B0FD0C9
:102ED0003B681B781A043B685B781B0213433A6813
:102EE00092781A433B68DB781B041343FB601BE0BA
:102EF0003B681B78184600F0A5FA03461C043B68A3
:102F00005B78184600F09EFA03461B021C433B68A0
:102F10009B78184600F096FA034644EA03023B68A1
:102F2000DB781B041343FB60144BCA225A62134B19
:102F300053225A62FFF722FF0346002B02D10023DF
:102F4000FB7212E00D4AFB6803F07F3323F0FE436F
:102F50001360FFF74BFFFFF757FF0346002B02D12B
:102F60000023FB7201E00123FB72044BFF225A6233
:102F7000FB7A18461437BD4690BD00BF00280040BC
:102F800080B584B000AF786039600023FB60244BCB
:102F90001B6803F07F3323F0FE43FB60FB681B0CD0
:102FA000DBB203F03F03DAB23B681A70FB681B0A1E
:102FB000DBB203F07F03DAB23B685A70FB68DBB226
:102FC00003F07F03DAB23B689A70FB681B0CDBB23C
:102FD00003F04003DAB23B68DA707B68002B1AD149
:102FE0003B681B78184600F049FA03461A463B68CE
:102FF0001A703B685B78184600F040FA03461A46A0
:103000003B685A703B689B78184600F037FA0346D5
:103010001A463B689A7000BF1037BD4680BD00BF9E
:103020000028004090B585B000AF7860396000237B
:10303000FB600023FB727B68002B0ED13B685B7842
:1030400003F01003002B08D03B685B7823F01003DB
:10305000DBB20A33DAB23B685A707B68002B0DD0C2
:103060003B685B78184600F009FA0346FB603B6852
:103070009B78184600F002FA0346FB607B68002B41
:103080000FD03B68DB781A043B685B781B02134364
:103090003A6892781A433B681B785B031343FB60E2
:1030A0001BE03B68DB78184600F0CCF903461C04B3
:1030B0003B685B78184600F0C5F903461B021C43C9
:1030C0003B689B78184600F0BDF9034644EA0302CA
:1030D0003B681B785B031343FB60144BCA225A62A4
:1030E000124B53225A62FFF749FE0346002B02D1CE
:1030F0000023FB7212E00D4AFB6823F07F4323F0AC
:10310000C0035360FFF772FEFFF77EFE0346002BFD
:1031100002D10023FB7201E00123FB72034BFF226B
:103120005A62FB7A18461437BD4690BD002800400D
:1031300080B584B000AF786039600023FB60224B1B
:103140005B6823F07F4323F0C003FB60FB681B0C2C
:10315000DAB23B68DA70FB681B0ADBB203F01F03CC
:10316000DAB23B685A70FB68DBB203F03F03DAB2B5
:103170003B689A70FB685B0BDBB203F00703DAB2C3
:103180003B681A707B68002B1AD13B68DB781846C5
:1031900000F074F903461A463B68DA703B685B78C6
:1031A000184600F06BF903461A463B685A703B68B4
:1031B0009B78184600F062F903461A463B689A70FD
:1031C00000BF1037BD4680BD0028004080B483B0EA
:1031D00000AF78600C4BCA225A620B4B53225A62E2
:1031E000094A094B9B6823F0070393600649064B85
:1031F0009A687B6813438B60034BFF225A6200BFBF
:103200000C37BD4680BC70470028004080B483B0B6
:1032100000AF7860084BCA225A62074B53225A62A9
:10322000054A7B685361044BFF225A6200BF0C378A
:10323000BD4680BC704700BF0028004080B487B006
:1032400000AF0346FB710023FB6000233B610023BA
:10325000FB751D4BCA225A621B4B53225A62FB79E3
:10326000002B08D0184A184B9B6843F48063936086
:103270000123FB751FE0144A134B9B6823F4806302
:103280009360114BDB6803F004033B61FB6801337F
:10329000FB60FB68B3F5803F02D03B69002BF0D0A8
:1032A000094BDB6803F00403002B02D10023FB75FC
:1032B00001E00123FB75044BFF225A62FB7D184697
:1032C0001C37BD4680BC70470028004080B485B0E4
:1032D00000AF786039600023FB60084BFB607B68BF
:1032E0009A00FB681344FB60FB681A463B68136056
:1032F00000BF1437BD4680BC704700BF5028004057
:1033000080B485B000AF78600023FB60064BFB60A3
:103310007B689A00FB681344FB60FB681B681846D7
:103320001437BD4680BC70475028004080B483B03D
:1033300000AF78600B46FB70194BCA225A62184BDB
:1033400053225A62FB78002B10D01549144B9A680F
:103350007B6823F0040313438B601149104B1A6CF4
:103360007B6803F0040313430B6411E00C490C4B1E
:103370009A687B6823F00403DB4313408B600849A1
:10338000074B1A6C7B6803F00403DB4313400B64A8
:10339000034BFF225A6200BF0C37BD4680BC70470A
:1033A0000028004080B487B000AF78600023FB7530
:1033B00000233B610023FB60134B1B6C03F00403F1
:1033C0003B61114B9A687B681A407B68D90B3B695B
:1033D0000B401343FB600C4BDA687B681B091340FE
:1033E0003B61FB68002B06D03B699BB2002B02D0EF
:1033F0000123FB7501E00023FB75FB7D18461C379C
:10340000BD4680BC704700BF0028004080B485B036
:1034100000AF78600023FB607B681B09FB600849F4
:10342000FB689BB243F08003DA43054BDB6803F093
:1034300080031343CB6000BF1437BD4680BC704788
:103440000028004080B485B000AF0346FB71002324
:10345000FB7305E0FB7B0133FB73FB790A3BFB71DC
:10346000FB79092BF6D8FB7B1B01DAB2FB791343FE
:10347000DBB218461437BD4680BC704780B485B0B7
:1034800000AF0346FB710023FB73FB791B09DBB222
:103490001A46920013445B00FB73FB7903F00F03A1
:1034A000DAB2FB7B1344DBB218461437BD4680BC4E
:1034B000704700BF80B485B000AF786039600023EA
:1034C000FB817B681B88FB817B68284A934213D071
:1034D0007B68274A93420FD07B68B3F1804F0BD0B3
:1034E0007B68244A934207D07B68234A934203D0E7
:1034F0007B68224A934208D1FB8923F07003FB8149
:103500003B685A88FB891343FB817B681C4A9342C2
:103510000CD07B681B4A934208D0FB8923F440738C
:10352000FB813B681A89FB891343FB817B68FA891D
:103530001A803B685A687B68DA623B681A887B6845
:103540001A857B68094A934203D07B68084A9342F4
:1035500004D13B689B7A9AB27B681A867B68012209
:103560009A8200BF1437BD4680BC704700000140FE
:10357000000401400004004000080040000C00402E
:10358000001000400014004080B483B000AF7860A9
:103590000B46FB70FB78002B08D07B681B889BB226
:1035A00043F001039AB27B681A8007E07B681B88AE
:1035B0009BB223F001039AB27B681A8000BF0C37DC
:1035C000BD4680BC704700BF80B485B000AF786056
:1035D0000B467B800023FB737B681B8A9AB27B8837
:1035E00013409BB2002B02D00123FB7301E00023A8
:1035F000FB73FB7B18461437BD4680BC704700BF89
:1036000080B483B000AF78600B467B807B88DB435F
:103610009AB27B681A8200BF0C37BD4680BC7047E7
:1036200080B582B000AF01210420FDF743F80023EC
:10363000BB710023FB7103237B7101233B714FF4AA
:1036400000433B603B4619461248FDF7CDFC4FF462
:1036500080433B603B4619460E48FDF7C5FC4FF4DE
:1036600000533B603B4619460A48FDF7BDFC4FF44A
:1036700000410848FDF746FD4FF400510548FDF7AD
:1036800041FD00210448FDF717FB00BF0837BD4688
:1036900080BD00BF000802400038004080B582B005
:1036A00000AF0346FB714FF400510848FDF738FDA9
:1036B000FB7919460648FDF73DFB4FF400510348DE
:1036C000FDF720FD00BF0837BD4680BD0008024061
:1036D0000038004080B582B000AF03460A46FB7157
:1036E0001346BB71FB79012B02D0022B0FD01DE0DA
:1036F000BB79002B05D04FF480410E48FDF702FD49
:1037000014E04FF480410B48FDF70AFD0EE0BB7951
:10371000002B05D04FF400410648FDF7F3FC04E010
:103720004FF400410348FDF7FBFC00BF00BF083722
:10373000BD4680BD0008024080B485B000AF78600F
:103740000023FB6002E0FB680133FB60FA687B68E2
:103750009A42F8D300BF1437BD4680BC704700BF03
:1037600080B582B000AF0346FB71FFF759FF00211F
:103770000220FFF7AFFF42F21070FFF7DDFF0121DB
:103780000220FFF7A7FF2121002000F027F81421D5
:10379000002000F023F897F90730002B01DA7F238F
:1037A000FB71FB7963F07F03DBB21946002000F068
:1037B00015F82021002000F011F80C21002000F065
:1037C0000DF800F0AFF80C21002000F007F800F031
:1037D00083F800BF0837BD4680BD00BF80B582B00A
:1037E00000AF03460A46FB711346BB71FB79002B01
:1037F00007D0012B00D009E001210120FFF76AFF6B
:1038000004E000210120FFF765FF00BFBB791846E7
:10381000FFF744FF00BF0837BD4680BD80B582B0CA
:1038200000AF0346FB710B46BB7113467B71FB79FE
:10383000532B49D8BB792F2B48D87B79002B1DD02F
:10384000FA79BB79DB08D8B20146542303FB01F3B4
:103850001344F979542202FB00F20A441D498A5CA0
:1038600051B2BA7902F00702012000FA02F252B214
:103870000A4352B2D1B2174AD1541EE0FA79BB7949
:10388000DB08D8B20146542303FB01F31344F97952
:10389000542202FB00F20A440E498A5C51B2BA7902
:1038A00002F00702012000FA02F252B2D24352B2F1
:1038B0000A4052B2D1B2074AD154BB79FA79B979E8
:1038C000F87900F09DF802E000BF00E000BF083783
:1038D000BD4680BD9800002080B582B000AF00F0EA
:1038E00021F800237B6007E00D4A7B681344002227
:1038F0001A707B6801337B607B68B3F5FC7FF3D380
:103900000021002000F0B8F82F23532200210020CE
:1039100000F076F800F012F800BF0837BD4680BD11
:103920009800002080B500AF80210020FFF756FFEF
:1039300040210020FFF752FF00BF80BD80B582B05C
:1039400000AF0023FB713BE0284B1B781A46FB7944
:103950000133DB009A422FDCFB79DB00244A12782A
:10396000934231DCFB7943F04003DBB2194600207F
:10397000FFF734FF1F4B1B7863F07F03DBB2194660
:103980000020FFF72BFF1B4B1B78BB710EE0FB7970
:10399000542202FB03F2BB791344174AD35C194645
:1039A0000120FFF71BFFBB790133BB71134B1B7861
:1039B000BA799A42EBD900E000BFFB790133FB7181
:1039C000FB79052BC0D900E000BF0A4B53221A70C7
:1039D0000A4B00221A70054B2F221A70044B00224A
:1039E0001A7000BF0837BD4680BD00BF62000020CE
:1039F000630000206000002098000020610000208B
:103A000090B482B000AF0446084611461A462346D9
:103A1000FB710346BB710B467B7113463B71124B26
:103A20001B78FA799A4202D20F4AFB7913700F4B36
:103A30001B787A799A4202D90C4A7B7913700C4B25
:103A40001B78BA799A4202D2094ABB791370094BA2
:103A50001B783A799A4202D9064A3B79137000BF23
:103A60000837BD4690BC7047600000206100002010
:103A7000620000206300002080B483B000AF0346E2
:103A80000A46FB711346BB71054AFB791370054A60
:103A9000BB79137000BF0C37BD4680BC704700BFB8
:103AA000950000209400002080B584B000AF03464C
:103AB000FB710B46BB7113467B717B79012B04D1E3
:103AC0000423BB730623FB7303E00623BB730823A5
:103AD000FB73474B1B781A46BB7B1344542B09DD01
:103AE000444B1A78FB7B1344DAB2424B1A70404BBA
:103AF00000221A7000237B736BE0FB791F2B1CD90B
:103B00007B79012B0CD1FB79A3F12002797B3A4818
:103B100013465B00134403440B441B783B730CE0D7
:103B2000FB79A3F12002797B344813465B001344F0
:103B30005B0003440B441B783B733B7B002B05D19C
:103B4000FB79002B02D0FB79202B3ED10023FB72A6
:103B500030E0BB79012B15D1254B1878254B1A780D
:103B6000FB7A1344D9B23A7BFB7A42FA03F303F0AF
:103B70000103002B14BF01230023DBB21A46FFF719
:103B80004DFE14E01A4B18781A4B1A78FB7A13443E
:103B9000D9B23A7BFB7A42FA03F303F00103002B1C
:103BA0000CBF01230023DBB21A46FFF737FEFB7A76
:103BB0000133FB72FA7AFB7B9A42CAD30C4B1B7817
:103BC0000133DAB20A4B1A7000E000BF7B7B01338D
:103BD0007B737A7BBB7B013B9A428EDB044B1B7869
:103BE0000133DAB2024B1A7000BF1037BD4680BDF8
:103BF0009500002094000020D45E00088C5C000832
:103C000080B582B000AF78600B46FB701346BB7086
:103C100008E07B685A1C7A601B78BA78F9781846F5
:103C2000FFF742FF7B681B78002BF2D100BF0837FB
:103C3000BD4680BD30B51F4A21F00043934287B096
:103C40001BDD1D4A934205DD02460B4601F04AF991
:103C500007B030BD02AA00F033F800F003000128DD
:103C6000DDE904231AD002280FD0E0B1DDE902011A
:103C700000F04AFA01F10041EAE700230093002234
:103C8000002300F061FF07B030BD0124DDE902012F
:103C9000009400F059FF01F10041D9E7DDE902018C
:103CA00000F032FAD4E70124DDE90201009400F0CB
:103CB0004BFFCDE7FB21E93FFFFFEF7F0000000056
:103CC0002DE9F04F944E21F00047B74291B040F3F8
:103CD00082809246914A97420C4626DC002984A3B2
:103CE000D3E9002340F3A88101F0FCF88C4B9F42FC
:103CF00004460D4600F084807FA3D3E9002301F041
:103D0000F1F802460B46CAE900232046294601F095
:103D1000E9F879A3D3E9002301F0E4F80125CAE921
:103D20000201284611B0BDE8F08F7E4A974240F369
:103D300084807D4A974259DC3D15A5F21645A7EBD4
:103D4000055319461F46064601F01AFD01F018FA00
:103D50008046894602460B4630463946CDE90A89F7
:103D600001F0C0F80022714B01F070FA89468046DC
:103D700001F006FD01F004FA02460B4606460F4626
:103D800040464946CDE90C6701F0ACF80022674B8C
:103D900001F05CFA00220023CDE90E0101F0BEFC27
:103DA000002800F07581002330463946002201F0DA
:103DB000B5FC002814BF012302235D4A01920221B1
:103DC00000912A4651460AA800F0C2FA002CC0F21F
:103DD0005181054606E0C2E9000100250024C2E940
:103DE00002450025284611B0BDE8F08F02460B467B
:103DF00001F078F80025CAE90201CAE90001F1E7FB
:103E00003FA3D3E9002301F06DF83FA3D3E90023DA
:103E10000D46044601F066F802460B46CAE9002347
:103E20002946204601F05EF837A3D3E9002301F0CC
:103E300059F80125CAE90201D4E700F03BFF34A399
:103E4000D3E900238046894601F000FA0022394B6D
:103E500001F04AF801F094FC054601F091F924A321
:103E6000D3E90023CDE9040101F0F0F902460B4645
:103E70004046494601F036F81FA3D3E900238046A7
:103E80008946DDE9040101F0E1F91F2DCDE90201C8
:103E900054DC294B6A1E53F822309F424ED0024612
:103EA0000B464046494601F01DF802460B46CAE95A
:103EB000002383460E465A4633464046494601F0A3
:103EC00011F8DDE9022301F00DF8002C02460B4643
:103ED000CAE9022386DA5B4606F1004601F1004199
:103EE0008AE84800CAF80C10CAF808006D4279E761
:103EF00000004054FB21F93F3163621A61B4D03DA8
:103F00000000601A61B4D03D7370032E8A19A33B80
:103F100083C8C96D305FE43FFB21E93F7BD9024094
:103F2000FB21F93FFB213941FFFFEF7F000070418A
:103F3000946000080000E03F14600008DDE90223FF
:103F40004046494600F0CEFF3A15C1F30A53D31A52
:103F5000102B83460E460992CAE90001ABDD5EA331
:103F6000D3E90023DDE9040101F070F906460F46AC
:103F700002460B464046494600F0B4FFCDE9060133
:103F800002460B464046494600F0ACFF32463B46EF
:103F900000F0A8FF52A3D3E9002306460F46DDE94F
:103FA000040101F053F932463B4600F09BFFDDE986
:103FB0000689CDE9020102460B464046494600F01B
:103FC00091FF0B46C1F30A570E460999CF1B0246D3
:103FD000312F8346CAE900237ADD43A3D3E90023C6
:103FE000DDE9040101F032F906460F4602460B46B0
:103FF00040464946CDE9068900F074FF02460B466B
:1040000080468946DDE9060100F06CFF32463B46FA
:1040100000F068FF36A3D3E9002306460F46DDE92A
:10402000040101F013F932463B4600F05BFF024603
:104030000B46CDE9022334E700F056FF304B9F4298
:1040400004460D4626D02CA3D3E9002300F04CFFF4
:1040500002460B46CAE900232946204600F042FFEB
:1040600025A3D3E9002300F03FFF4FF0FF35CAE955
:104070000201B7E6DAF80420DAF80C3002F1004267
:1040800003F100434542CAF80420CAF80C30A9E6FF
:10409000032392E610A3D3E9002300F025FF10A329
:1040A000D3E900230D46044600F01EFF02460B46EE
:1040B000CAE900232946204600F014FF08A3D3E9EB
:1040C000002300F011FF4FF0FF35CAE9020189E635
:1040D000DDE90689EFE600BF0000601A61B4D03D5B
:1040E0007370032E8A19A33B0000002E8A19A33B8C
:1040F000C14920259A837B393163621A61B4D03D6E
:10410000FB21F93F000000002DE9F04F21F00046AF
:10411000B6F1795F85B00C4692469B4605466BDA50
:1041200001F02EFB002800F0E8802A4623462846AE
:10413000214601F08BF874A3D3E900238046894619
:1041400001F084F872A3D3E9002300F0CDFE4246CB
:104150004B4601F07BF870A3D3E9002300F0C2FEC8
:1041600042464B4601F072F86DA3D3E9002300F0FC
:10417000BBFE42464B4601F069F86BA3D3E900232E
:1041800000F0B0FE42464B4601F060F868A3D3E968
:10419000002300F0A9FE42464B4601F057F8CDE956
:1041A00000010022644B4046494601F04FF8DDE92A
:1041B000002306460F464046494601F047F852465E
:1041C000804689465B462846214601F03FF8024674
:1041D0000B464046494600F085FE02460B463046F7
:1041E000394600F07FFE02460B460020534900F09E
:1041F00079FE05B0BDE8F08F02460B4601F026F8C7
:1042000041A3D3E900238046894601F01FF840A36B
:10421000D3E9002300F068FE42464B4601F016F851
:104220003DA3D3E9002300F05DFE42464B4601F07A
:104230000DF83BA3D3E9002300F056FE42464B465F
:1042400001F004F838A3D3E9002300F04BFE424606
:104250004B4600F0FBFF36A3D3E9002300F044FEF9
:104260004B46424600F0F2FF354B9E42CDE900013D
:1042700097DD344B9E424FF0000238DCA6F5001368
:1042800000202E4916461F4600F02CFECDE9020103
:104290000022294B4046494600F0D8FF32463B46B3
:1042A00000F020FEDDE9002306460F464046494661
:1042B00000F0CCFF5246804689465B4628462146A0
:1042C00000F0C4FF02460B464046494600F00AFE95
:1042D00002460B463046394600F004FE02460B46C5
:1042E000DDE9020100F0FEFD05B0BDE8F08F164BE0
:1042F000164FCDE902230026CAE71049002005B079
:10430000BDE8F08FAFF30080D43888BEE9FAA8BDCD
:10431000C4B1B4BD9EEE213EAD529C804F7E923E14
:104320009015CB19A001FA3E7751C1166CC1563FCA
:104330004C5555555555A53F0000E03F0000F03F56
:104340003233D33F0000E93F0000E73F0000D23F97
:104350002DE9F04FADF51D7D794CA69E794D54F8B1
:10436000264009942646D41E85FB0475E417C4EB49
:10437000A50424EAE4741D460C93631CA3EB830399
:10438000013D02EBC30308932B460D940295651B78
:10439000F41804900A9116D42C44013422AEA79F3D
:1043A00008E057F8250000F0EBFE0135A542E6E9EC
:1043B000020108D0002DF4DA013500200021A542C9
:1043C000E6E90201F6D1099B002B31DB099A0C9B2F
:1043D00074A901EBC20BC3EB4373029A24A9DB005F
:1043E00001EBC20901930DF5E47A029B002BC0F2A8
:1043F0009081049BA3F10805019B4C4609EB03083F
:1044000000260027F5E9022374E8020100F01EFFF0
:1044100002460B463046394600F066FD44450646E6
:104420000F46EFD1EAE90267DA4509F10809DCD164
:10443000099D05F18043023B9B001A1D10A90A4407
:104440000B440F920E939CAB03EBC503002D53E975
:1044500028672BDD9CAB03EBC504A83C0DF13C0A9F
:104460000DF5E47B0022384B3046394600F0EEFE75
:1044700001F086F900F084FE0022344B8046894624
:1044800000F0E4FE02460B463046394600F02AFDB5
:1044900001F076F974E802234AF8040F49464046D1
:1044A00000F022FD5C4506460F46DBD1089C3046F5
:1044B0003946224600F08CFC00224FF07F5306461E
:1044C0000F4600F0C3FE00F0FBFB0022204B00F083
:1044D000BDFE02460B463046394600F003FD0F464E
:1044E000064601F04DF9814600F04AFE02460B46B1
:1044F0003046394600F0F6FC002C06460F4640F3E5
:10450000EF80691E10AAC4F1180352F8212042FA64
:1045100003F000FA03F3D31A10AAC4F1170842F803
:104520002130814443FA08F8B8F1000F3DDD002D39
:1045300009F1010940F3D682002214460FA911E0C7
:104540009C610008ABAAAA2A0000703E00007041DE
:1045500000002040C3F180700BB1086001240132DB
:1045600095420DDD51F8043F002CF3D0C3F1FF1349
:10457000013203F57F4395420B604FF00104F1DCFB
:10458000089B002B0DDD012B00F0B280022B08D11F
:104590006A1E10AB10A953F82230C3F3150341F87B
:1045A0002230B8F1020F00F0828000220023304652
:1045B000394601F0B3F8002800F05E82099B05F14E
:1045C000FF3B5B4510DC05F1804310AA013B0F98CF
:1045D00002EB8303002253F80419834242EA0102EA
:1045E000F9D1002A40F0B280099B10AA013B52F891
:1045F0002330002B40F074820E9A012352F80419E4
:1046000001330029FAD0E9186A1C8A420B9149DC6F
:104610000D990C985118DB0001F180410593A79B7F
:1046200005440139E80003EB810A24ABD20003EB17
:10463000000B74AB13440193A2F108030690079397
:104640004FF000095AF8040F00F09AFD029B002B6E
:10465000EBE8020128DB069B03EB0904079B09EB4F
:10466000030824AB1C449844049B0026A3F10805CE
:104670000027F5E9022374E8020100F0E7FD024695
:104680000B463046394600F02FFC444506460F469F
:10469000EFD1019BE3E802670193059B09F108094B
:1046A0009945CFD10B9DCEE600260027F1E7324693
:1046B0003B460020B04900F015FC06460F46002C92
:1046C0003FF473AF089AAC49002000F081FB02462A
:1046D0000B463046394600F005FC06460F4664E7B7
:1046E00010D16B1E10AA52F823304FEAE3581BE793
:1046F0006A1E10AB10A953F82230C3F3160341F819
:1047000022304EE700229D4B01F026F858B9804632
:104710004BE700260027EAE90267DA4509F10809B4
:104720007FF463AE84E6002D09F10109C8BF4FF0A4
:1047300002083FF701AF32463B4600208E4900F0A9
:10474000D1FB4FF0020806460F462EE710AB089A41
:1047500053F82B30CDF81490183ACDF80480089215
:104760006BB90BF18043013B10A901EB830353F8B4
:1047700004190BF1FF3B183A0029F8D00892089A67
:104780007D49002000F024FBBBF1000F04460D46DC
:10479000C0F2B8814FEACB030DF5E87810AA02EB1E
:1047A0008B0608EB03090493043609F1080756F851
:1047B000040D00F0E5FC22462B4600F047FD0022E8
:1047C00067E902016E4B2046294600F03FFDB845DF
:1047D00004460D46EBD10DF5987A4B46CDF808A06E
:1047E000DDF824A0CDF818B04FF000099B46BAF1CF
:1047F000000FC0F22A81DFF88C815D465CA3D3E90B
:10480000002300260027002403E0A14510DBF8E97F
:104810000223F5E8020100F019FD02460B4630467E
:10482000394600F061FB0134A24506460F46ECDA3A
:10483000029B03EBC903ABF1080BC3E9006772AB42
:104840005B4509F10109D2D1A69BDDF818B0DDF86E
:1048500008A0032B00F28380DFE813F0D500960058
:1048600096000400BBF1000F40F35681049BCDF885
:1048700008B00AEB0308D8E90067D34658E9029A62
:1048800032463B464846514600F02EFB04460D4654
:1048900002460B464846514600F024FB32463B4652
:1048A00000F022FBC8E9000168E90245C34526463D
:1048B0002F46E3D1DA46DDF808B0BBF1010F40F333
:1048C0002B81049B5344D3E90067984699460DF524
:1048D0009C7B59E902343046CDE902341A46394608
:1048E000234600F001FB04460D4602460B46DDE977
:1048F000020100F0F7FA32463B4600F0F5FAC9E94A
:10490000000169E90245CB4526462F46E1D1002347
:1049100008F108081D4650AC1846294678E90223DC
:1049200000F0E2FA444503460D46F5D1019A002A0B
:1049300000F0DA800A9FDAF80440DAF80C20DAF89E
:104940000010DAF808003B6105F1004504F100446D
:1049500002F100437D617C60FB603960B860059BBB
:1049600003F007000DF51D7DBDE8F08FAFF300806B
:1049700000000040FB21F93F0000F03F0000E03F55
:104980000000703EB0610008049C002608345444C6
:1049900033463046194674E9022300F0A5FA54451F
:1049A00006460B46F5D1019A30461946002A4FD0EB
:1049B0000A9803F10044324644600660DAE90001D7
:1049C00000F090FABBF1000F02460B460DDD01240A
:1049D00010461946FAE9022300F086FA0134A3458D
:1049E00002460B46F4DA019909B103F10043194676
:1049F0000A9B1046C3E90201059B03F007000DF571
:104A00001D7DBDE8F08F049B002208339A441346B5
:104A1000104619467AE9022300F066FA0BF1FF3BD3
:104A2000BBF1FF3F02460B46F2D1019909B103F1F8
:104A3000004319460A9B1046C3E90001059B03F099
:104A400007000DF51D7DBDE8F08F00260027EFE67D
:104A50000A9B3246C3E900010B46DAE9000100F087
:104A600041FABBF1000F02460B46B0DC19460A9B27
:104A70001046C3E90201BFE7089BCDF814905A42E3
:104A800030463946CDF8048000F0A2F900222C4BC4
:104A900006460F4600F060FE002840D00022294B59
:104AA0003046394600F0D2FB00F06AFE044600F0C2
:104AB00067FB0022224B00F0C9FB0B460246394639
:104AC000304600F00FFA00F05BFE089B183305F14A
:104AD000010B089310AB43F8250043F82B404EE63A
:104AE000012390E500244BE518462946DAE9002326
:104AF000DAE902450A9FC7E90401C7E90023C7E9CB
:104B000002452CE7A69B032B3FF629AFDFE803F015
:104B1000151010020DF5987A00231D4606E7304661
:104B2000394600F02DFE10ABAB4643F8250026E6D3
:104B3000002633460DF5987A35E70022134674E7D0
:104B4000000070410000703E2DE9F04F21F000465A
:104B5000B6F1795F85B00C4690469946054604DA71
:104B600000F00EFE002800F085802A4623462846E5
:104B7000214600F06BFB06460F4602460B462846D0
:104B8000214600F063FB3EA3D3E9002382468B4617
:104B90003046394600F05AFB3BA3D3E9002300F02E
:104BA000A1F932463B4600F051FB39A3D3E900237B
:104BB00000F09AF932463B4600F048FB36A3D3E9B1
:104BC000002300F08FF932463B4600F03FFB34A350
:104BD000D3E9002300F088F90E9BCDE900019BB3D7
:104BE0000022334B4046494600F030FBDDE900230C
:104BF000CDE902015046594600F028FB02460B461B
:104C0000DDE9020100F06EF932463B4600F01EFB82
:104C100042464B4600F066F923A3D3E9002306463B
:104C20000F465046594600F011FB02460B463046EF
:104C3000394600F059F902460B462846214600F055
:104C400051F905B0BDE8F08F02460B4630463946B3
:104C500000F0FCFA14A3D3E9002300F043F9524614
:104C60005B4600F0F3FA2A46234600F03DF905B012
:104C7000BDE8F08F2846214605B0BDE8F08F00BFA3
:104C80007CD5CF5A3AD9E53DEB9C2B8AE6E55A3ED6
:104C90007DFEB157E31DC73ED561C119A0012A3F72
:104CA000A6F810111111813F495555555555C53F6D
:104CB0000000E03F21F00041704700BF000000000D
:104CC000C1F30A522DE9F843A2F2FF36132E0B4628
:104CD0000D460446884607461CDC002E3FDB3A4A58
:104CE00042FA06F901EA09020243864617D034A3C4
:104CF000D3E9002300F0F8F80022002300F036FD8D
:104D000020B1002D40DB28EA090500273846294656
:104D1000BDE8F883332E06DDB6F5806F2FD0204630
:104D20001946BDE8F883A2F213424FF0FF3929FA81
:104D300002F910EA090FF2D021A3D3E9002300F011
:104D4000D3F80022002300F011FD0028DED0002D52
:104D500020DB454627EA090738462946D8E718A345
:104D6000D3E9002300F0C0F80022002300F0FEFC8D
:104D70000028CBD0002D18DB00273D46C6E70246B1
:104D80000B4600F0B1F8CCE74FF4801343FA06F677
:104D9000B044B8E7142E10D00123C6F1340603FA4C
:104DA00006F6371928BF9844D3E725F00042074B91
:104DB000224318BF1D460027A8E705F10108C8E7F0
:104DC0009C7500883CE4377EFFFF0F000000F0BFB9
:104DD000F8B5C1F30A5604460D460B46174606BB06
:104DE00021F00043034325D00022354B00F02EFA7A
:104DF000344A974204460D460B462ADBC1F30A5655
:104E0000363E3E4440F2FE72964228DC002E12DD11
:104E100023F0FF4323F4E00343EA065520462946E6
:104E2000F8BD40F2FF729642EBD102460B4600F00D
:104E30005BF8F8BDF8BD16F1350F1DDA4CF25033B2
:104E40009F4222462B4625DC19A1D1E9000100F042
:104E50003DF817A3D3E9002300F0F8F9F8BD224686
:104E60002B4615A1D1E9000100F030F812A3D3E9D7
:104E7000002300F0EBF9F8BD23F0FF4323F4E00337
:104E8000363643EA06552046294600220E4B00F0EE
:104E9000DDF9F8BD08A1D1E9000100F017F806A37B
:104EA000D3E9002300F0D2F9F8BD00BFAFF30080D2
:104EB00059F3F8C21F6EA5019C7500883CE4377E4B
:104EC00000005043B03CFFFF0000903C03F0004363
:104ED00021F0004242EA0301704700BF81F0004127
:104EE00002E000BF83F0004330B54FEA41044FEACF
:104EF000430594EA050F08BF90EA020F1FBF54EA6A
:104F0000000C55EA020C7FEA645C7FEA655C00F005
:104F1000E2804FEA5454D4EB5555B8BF6D420CDDD6
:104F20002C4480EA020281EA030382EA000083EA59
:104F3000010180EA020281EA0303362D88BF30BDF9
:104F400011F0004F4FEA01314FF4801C4CEA11314F
:104F500002D0404261EB410113F0004F4FEA0333AE
:104F60004CEA133302D0524263EB430394EA050F39
:104F700000F0A780A4F10104D5F1200E0DDB02FAA8
:104F80000EFC22FA05F2801841F1000103FA0EF23C
:104F9000801843FA05F359410EE0A5F120050EF102
:104FA000200E012A03FA0EFC28BF4CF0020C43FA33
:104FB00005F3C01851EBE37101F0004507D54FF040
:104FC000000EDCF1000C7EEB00006EEB0101B1F590
:104FD000801F1BD3B1F5001F0CD349085FEA3000D6
:104FE0004FEA3C0C04F101044FEA445212F5800FE1
:104FF00080F09A80BCF1004F08BF5FEA500C50F17E
:10500000000041EB045141EA050130BD5FEA4C0C60
:10501000404141EB010111F4801FA4F10104E9D1E9
:1050200091F0000F04BF01460020B1FA81F308BFE0
:105030002033A3F10B03B3F120020CDA0C3208DDAC
:1050400002F1140CC2F10C0201FA0CF021FA02F187
:105050000CE002F11402D8BFC2F1200C01FA02F1F7
:1050600020FA0CFCDCBF41EA0C019040E41AA2BF1C
:1050700001EB0451294330BD6FEA04041F3C1CDAE4
:105080000C340EDC04F11404C4F1200220FA04F004
:1050900001FA02F340EA030021FA04F345EA0301AE
:1050A00030BDC4F10C04C4F1200220FA02F001FA70
:1050B00004F340EA0300294630BD21FA04F02946F2
:1050C00030BD94F0000F83F4801306BF81F480118B
:1050D0000134013D4EE77FEA645C18BF7FEA655CFE
:1050E00029D094EA050F08BF90EA020F05D054EAD0
:1050F000000C04BF1946104630BD91EA030F1EBFD5
:105100000021002030BD5FEA545C05D140004941D8
:1051100028BF41F0004130BD14F580043CBF01F5CB
:10512000801130BD01F0004545F0FE4141F47001B1
:105130004FF0000030BD7FEA645C1ABF194610468C
:105140007FEA655C1CBF0B46024650EA013406BF8D
:1051500052EA033591EA030F41F4002130BD00BF4C
:1051600090F0000F04BF0021704730B54FF4806409
:1051700004F132044FF000054FF0000150E700BF8A
:1051800090F0000F04BF0021704730B54FF48064E9
:1051900004F1320410F0004548BF40424FF00001D6
:1051A0003EE700BF42004FEAE2014FEA31014FEA19
:1051B00002701FBF12F07F4393F07F4F81F0605168
:1051C000704792F0000F14BF93F07F4F704730B5D7
:1051D0004FF4607401F0004521F0004120E700BF6A
:1051E00050EA010208BF704730B54FF000050AE0F1
:1051F00050EA010208BF704730B511F0004502D5F2
:10520000404261EB41014FF4806404F132045FEAF3
:10521000915C3FF4DCAE4FF003025FEADC0C18BF98
:1052200003325FEADC0C18BF033202EBDC02C2F18E
:10523000200300FA03FC20FA02F001FA03FE40EA20
:105240000E0021FA02F11444C1E600BF70B54FF020
:10525000FF0C4CF4E06C1CEA11541DBF1CEA135502
:1052600094EA0C0F95EA0C0F00F0DEF82C4481EA6A
:10527000030621EA4C5123EA4C5350EA013518BF8A
:1052800052EA033541F4801143F4801338D0A0FB77
:1052900002CE4FF00005E1FB02E506F00042E0FB24
:1052A00003E54FF00006E1FB03569CF0000F18BF2A
:1052B0004EF0010EA4F1FF04B6F5007F64F54074D2
:1052C00004D25FEA4E0E6D4146EB060642EAC62165
:1052D00041EA55514FEAC52040EA5E504FEACE2ED2
:1052E000B4F1FD0C88BFBCF5E06F1ED8BEF1004FD5
:1052F00008BF5FEA500E50F1000041EB045170BD51
:1053000006F0004646EA010140EA020081EA030194
:10531000B4EB5C04C2BFD4EB0C0541EA045170BD90
:1053200041F480114FF0000E013C00F3AB8014F10A
:10533000360FDEBF002001F0004170BDC4F1000453
:10534000203C35DA0C341BDC04F11404C4F12005D4
:1053500000FA05F320FA04F001FA05F240EA02002F
:1053600001F0004221F0004110EBD37021FA04F665
:1053700042EB06015EEA430E08BF20EAD37070BD1F
:10538000C4F10C04C4F1200500FA04F320FA05F07E
:1053900001FA04F240EA020001F0004110EBD37080
:1053A00041F100015EEA430E08BF20EAD37070BDF0
:1053B000C4F1200500FA05F24EEA020E20FA04F3C9
:1053C00001FA05F243EA020321FA04F001F0004178
:1053D00021FA04F220EA020000EBD3705EEA430EE9
:1053E00008BF20EAD37070BD94F0000F0FD101F018
:1053F0000046400041EB010111F4801F08BF013C51
:10540000F7D041EA060195F0000F18BF704703F08E
:105410000046520043EB030313F4801F08BF013D15
:10542000F7D043EA0603704794EA0C0F0CEA1355D1
:1054300018BF95EA0C0F0CD050EA410618BF52EA8B
:105440004306D1D181EA030101F000414FF0000091
:1054500070BD50EA410606BF1046194652EA43069F
:1054600019D094EA0C0F02D150EA013613D195EA13
:105470000C0F05D152EA03361CBF104619460AD15B
:1054800081EA030101F0004141F0FE4141F4700165
:105490004FF0000070BD41F0FE4141F4780170BD55
:1054A00070B54FF0FF0C4CF4E06C1CEA11541DBFBA
:1054B0001CEA135594EA0C0F95EA0C0F00F0A7F8BC
:1054C000A4EB050481EA030E52EA03354FEA0131E9
:1054D00000F088804FEA03334FF0805545EA1313FC
:1054E00043EA12634FEA022245EA111545EA1065C4
:1054F0004FEA00260EF000419D4208BF964244F15B
:10550000FD0404F5407402D25B084FEA3202B61A79
:1055100065EB03055B084FEA32024FF480104FF44D
:10552000002CB6EB020E75EB030E22BFB61A7546C1
:1055300040EA0C005B084FEA3202B6EB020E75EB54
:10554000030E22BFB61A754640EA5C005B084FEABC
:105550003202B6EB020E75EB030E22BFB61A754689
:1055600040EA9C005B084FEA3202B6EB020E75EB94
:10557000030E22BFB61A754640EADC0055EA060E55
:1055800018D04FEA051545EA16754FEA06164FEA98
:10559000C30343EA52734FEAC2025FEA1C1CC0D144
:1055A00011F4801F0BD141EA00014FF000004FF0D1
:1055B000004CB6E711F4801F04BF01430020B4F192
:1055C000FD0C88BFBCF5E06F3FF6AFAEB5EB030C4A
:1055D00004BFB6EB020C5FEA500C50F1000041EB47
:1055E000045170BD0EF0004E4EEA113114EB5C0414
:1055F000C2BFD4EB0C0541EA045170BD41F48011E7
:105600004FF0000E013C90E645EA060E8DE60CEAEE
:10561000135594EA0C0F08BF95EA0C0F3FF43BAF0B
:1056200094EA0C0F0AD150EA01347FF434AF95EAC2
:105630000C0F7FF425AF104619462CE795EA0C0FA6
:1056400006D152EA03353FF4FDAE1046194622E773
:1056500050EA410618BF52EA43067FF4C5AE50EA4D
:1056600041047FF40DAF52EA43057FF4EBAE12E73D
:105670004FF0FF3C06E000BF4FF0010C02E000BF1E
:105680004FF0010C4DF804CD4FEA410C7FEA6C5C01
:105690004FEA430C18BF7FEA6C5C1BD001B050EAA4
:1056A000410C0CBF52EA430C91EA030F02BF90EA8F
:1056B000020F0020704710F1000F91EA030F58BF4E
:1056C000994208BF90422CBFD8176FEAE37040F0B0
:1056D000010070474FEA410C7FEA6C5C02D150EA4E
:1056E000013C07D14FEA430C7FEA6C5CD6D152EA09
:1056F000033CD3D05DF8040B704700BF84461046CE
:1057000062468C461946634600E000BF01B5FFF7CC
:10571000B7FF002848BF10F1000F01BD4DF808ED9C
:10572000FFF7F4FF0CBF012000205DF808FB00BF6D
:105730004DF808EDFFF7EAFF34BF012000205DF8C7
:1057400008FB00BF4DF808EDFFF7E0FF94BF012014
:1057500000205DF808FB00BF4DF808EDFFF7CEFF15
:1057600094BF012000205DF808FB00BF4DF808ED54
:10577000FFF7C4FF34BF012000205DF808FB00BF25
:105780004FEA410212F5001215D211D56FF4787369
:10579000B3EB625212D94FEAC12343F0004343EA0C
:1057A000505311F0004F23FA02F018BF40427047E7
:1057B0004FF00000704750EA013005D111F0004071
:1057C00008BF6FF0004070474FF00000704700BF07
:1057D0004A0011D212F5001211D20DD56FF4787370
:1057E000B3EB62520ED44FEAC12343F0004343EAC5
:1057F000505323FA02F070474FF00000704750EA10
:10580000013002D14FF0FF3070474FF00000704779
:1058100080F0004002E000BF81F0004142001FBF65
:105820005FEA410392EA030F7FEA226C7FEA236C6E
:105830006AD04FEA1262D2EB1363C1BFD218414063
:1058400048404140B8BF5B42192B88BF704710F0F9
:10585000004F40F4000020F07F4018BF404211F09C
:10586000004F41F4000121F07F4118BF494292EA04
:10587000030F3FD0A2F1010241FA03FC10EB0C0030
:10588000C3F1200301FA03F100F0004302D54942BD
:1058900060EB4000B0F5000F13D3B0F1807F06D36A
:1058A00040084FEA310102F10102FE2A51D2B1F162
:1058B000004F40EBC25008BF20F0010040EA030057
:1058C0007047490040EB000010F4000FA2F1010204
:1058D000EDD1B0FA80FCACF1080CB2EB0C0200FA8E
:1058E0000CF0AABF00EBC25052421843BCBFD040DC
:1058F0001843704792F0000F81F4000106BF80F456
:1059000000000132013BB5E74FEA41037FEA226C18
:1059100018BF7FEA236C21D092EA030F04D092F0E3
:10592000000F08BF0846704790EA010F1CBF002017
:10593000704712F07F4F04D1400028BF40F0004074
:10594000704712F100723CBF00F50000704700F094
:10595000004343F0FE4040F4000070477FEA2262BB
:1059600016BF08467FEA23630146420206BF5FEA8C
:10597000412390EA010F40F4800070474FF000038C
:1059800004E000BF10F0004348BF40425FEA000C53
:1059900008BF704743F0964301464FF000001CE0FB
:1059A00050EA010208BF70474FF000030AE000BF51
:1059B00050EA010208BF704711F0004302D540428F
:1059C00061EB41015FEA010C02BF84460146002001
:1059D00043F0B64308BFA3F18053A3F50003BCFA1C
:1059E0008CF2083AA3EBC25310DB01FA02FC6344C9
:1059F00000FA02FCC2F12002BCF1004F20FA02F2D0
:105A000043EB020008BF20F00100704702F12002C2
:105A100001FA02FCC2F1200250EA4C0021FA02F223
:105A200043EB020008BF20EADC7070474FF0FF3CF8
:105A300006E000BF4FF0010C02E000BF4FF0010C88
:105A40004DF804CD4FEA40024FEA41037FEA226C51
:105A500018BF7FEA236C11D001B052EA530C18BF73
:105A600090EA010F58BFB2EB030088BFC81738BFD8
:105A70006FEAE17018BF40F0010070477FEA226CC6
:105A800002D15FEA402C05D17FEA236CE4D15FEAC2
:105A9000412CE1D05DF8040B704700BF84460846F6
:105AA0006146FFE70FB5FFF7C9FF002848BF10F1B7
:105AB000000F0FBD4DF808EDFFF7F4FF0CBF0120FC
:105AC00000205DF808FB00BF4DF808EDFFF7EAFF86
:105AD00034BF012000205DF808FB00BF4DF808ED41
