:020000040800F2
:10000000B80A00202D0200088902000889020008B1
:100010008902000889020008890200080000000027
:10002000000000000000000000000000890200083D
:100030008902000800000000890200088902000807
:10004000890200088902000889020008791800085E
:100050008902000889020008890200088902000854
:100060008902000889020008890200088902000844
:100070008902000889020008890200088902000834
:100080008902000889020008890200088902000824
:100090008902000889020008890200088902000814
:1000A0008902000889020008890200088902000804
:1000B00089020008890200088902000889020008F4
:1000C00089020008890200088902000889020008E4
:1000D00089020008890200088902000889020008D4
:1000E000A1040008A9180008890200088902000874
:1000F00089020008890200088902000889020008B4
:1001000089020008890200088902000889020008A3
:100110008902000889020008890200088902000893
:100120008902000889020008890200088902000883
:100130008902000889020008890200088902000873
:100140008902000889020008890200088902000863
:100150008902000889020008890200088902000853
:100160008902000889020008890200088902000843
:100170008902000889020008890200088902000833
:10018000890200088902000890B484B000AF0346D9
:100190000A46FB711346BB710023FB60BB7903F079
:1001A00003039B000F2202FA03F3FB601649BB799D
:1001B0009B08DBB21846144ABB799B08DBB20233BA
:1001C00052F82320FB68DB431A40831C41F82320AC
:1001D0000D48BB799B08DBB21C460B4ABB799B08D8
:1001E000DBB2023352F82320F979BB7903F0030321
:1001F0009B0001FA03F31A43A31C40F8232000BF1D
:100200001037BD4690BC70470038014080B483B0C1
:1002100000AF0346FB71044AFB79136000BF0C3743
:10022000BD4680BC704700BF20000E4280B582B042
:1002300000AF104B7B60104B3B6007E03B681A1D22
:100240003A607A68111D796012681A603B680B4A3F
:100250009342F3D30A480B494FF000028842B8BFDB
:1002600040F8042BFADB00F02DFA00BF0837BD463A
:1002700080BD00BF343200080000002018000020BC
:1002800018000020B402002080B400AFFEE700BFD9
:1002900080B586B000AF0121022000F099FB01215A
:1002A0004FF4804000F0D0FB00233B750023BB756A
:1002B0004FF400633B610123FB7503237B7507F15A
:1002C00010031946124800F0AFFD0B210120FFF783
:1002D0005BFF4FF40063BB600123BB7300233B73E0
:1002E00010237B7307F10803184601F069FB2823EC
:1002F0003B7100237B710123BB710123FB713B1D0B
:10030000184601F001FC00BF1837BD4680BD00BF94
:100310000004024080B586B000AF0121022000F049
:1003200057FB01214FF4804000F08EFB00233B750A
:100330000023BB754FF480533B610123FB750323FE
:100340007B7507F110031946124800F06DFD0C2172
:100350000120FFF719FF4FF48053BB600123BB73EB
:1003600000233B7310237B7307F10803184601F049
:1003700027FB28233B7100237B710123BB710123E1
:10038000FB713B1D184601F0BFFB00BF1837BD468F
:1003900080BD00BF0004024080B586B000AF0121DF
:1003A000022000F015FB01214FF4804000F04CFBCF
:1003B00000233B750023BB754FF400533B610123C1
:1003C000FB7503237B7507F110031946124800F0F3
:1003D0002BFD0D210120FFF7D7FE4FF40053BB602A
:1003E0000123BB7300233B7310237B7307F10803C6
:1003F000184601F0E5FA28233B7100237B710123A5
:10040000BB710123FB713B1D184601F07DFB00BF52
:100410001837BD4680BD00BF0004024080B586B0DD
:1004200000AF0121022000F0D3FA01214FF48040F7
:1004300000F00AFB00233B750023BB754FF480439B
:100440003B610123FB7503237B7507F110031946FC
:10045000124800F0E9FC0E210120FFF795FE4FF451
:100460008043BB600123BB7300233B7310237B736A
:1004700007F10803184601F0A3FA28233B71002373
:100480007B710123BB710123FB713B1D184601F0F9
:100490003BFB00BF1837BD4680BD00BF00040240D3
:1004A00080B58CB000AF4FF4006001F0FBFA03465A
:1004B000002B2AD00023FB6220E04FF480516048DB
:1004C00000F040FD0023BB6202E0BB6A0133BB6267
:1004D000BB6A5C4A9342F8DD4FF48051584800F003
:1004E0003FFD00237B6202E07B6A01337B627B6A13
:1004F000544A9342F8DDFB6A0133FB62FB6A042B2A
:10050000DBDD4FF4006001F0F1FA4FF4805001F0B0
:10051000C9FA0346002B2AD000233B6220E04FF4A7
:100520000051474800F00EFD0023FB6102E0FB692B
:100530000133FB61FB69434A9342F8DD4FF40051FC
:100540003F4800F00DFD0023BB6102E0BB690133B1
:10055000BB61BB693B4A9342F8DD3B6A01333B62B6
:100560003B6A042BDBDD4FF4805001F0BFFA4FF4FF
:10057000005001F097FA0346002B2AD000237B613C
:1005800020E04FF480412E4800F0DCFC00233B616A
:1005900002E03B6901333B613B692A4A9342F8DD43
:1005A0004FF48041264800F0DBFC0023FB6002E0B2
:1005B000FB680133FB60FB68224A9342F8DD7B69EC
:1005C00001337B617B69042BDBDD4FF4005001F0CC
:1005D0008DFA4FF4804001F065FA0346002B2AD0D3
:1005E0000023BB6020E04FF40041154800F0AAFC56
:1005F00000237B6002E07B6801337B607B68114AEB
:100600009342F8DD4FF400410D4800F0A9FC0023AF
:100610003B6002E03B6801333B603B68094A934220
:10062000F8DDBB680133BB60BB68042BDBDD4FF436
:10063000804001F05BFA00BF3037BD4680BD00BF8F
:10064000000C02403F420F0080B582B000AF012194
:10065000082000F0BDF94FF470433B600023BB71EC
:1006600003237B710023FB7101233B713B46194639
:10067000034800F0D9FB00BF0837BD4680BD00BF6E
:10068000000C024080B584B000AF0121042000F0CE
:10069000BDF94FF47A73BB6041F61F43BB80002362
:1006A000BB810023FB803B1D1946054801F0BAFFC2
:1006B0000121034802F020F800BF1037BD4680BD7D
:1006C0000008004080B590B000AF00F069FCFFF773
:1006D000BBFFFFF7D7FF382002F0FAF8002000F048
:1006E00007FD072000F062FF744B0E225A71734B16
:1006F00038221A71714B00221A70704B0E225A72F6
:100700006E4B06221A726D4B1E22DA716B4B06225B
:100710009A710021694800F07BFDFFF7FBFDFFF7B0
:100720003BFEFFF77BFEFFF7B3FD0023FB630021D9
:10073000624800F0AFFE614B5B79BB6307F12003B9
:100740000A221946B86B02F045FB5C4B1B797B63B0
:1007500007F110030A221946786B02F03BFB574B56
:100760001B783B633B460A221946386B02F032FB8A
:100770000121534801F0E0FF0346002BF8D04FF46D
:100780008041504800F0FAFBFB6B002B5DD102F07A
:100790005BF90321052002F027FA002201214A48D3
:1007A00002F0E6FA03211E2002F01EFA07F12003F0
:1007B00000220121184602F0DBFA03212A2002F070
:1007C00013FA00220121414802F0D2FA032130201D
:1007D00002F00AFA07F1100300220121184602F084
:1007E000C7FA03213C2002F0FFF90022012137481B
:1007F00002F0BEFA0321422002F0F6F93B46002245
:100800000121184602F0B4FA0D21052002F0ECF99E
:10081000002201212E4802F0ABFA0D21282002F01F
:10082000E3F9002201212B4802F0A2FA1A21052047
:1008300002F0DAF901220121274802F099FA02F0C8
:1008400035F9FB6B0133FB6332E002F0FDF8032165
:10085000052002F0C9F9002201211B4802F088FAA4
:1008600003211E2002F0C0F9002201211B4802F0E2
:100870007FFA0D21052002F0B7F90022012114486A
:1008800002F076FA0D21282002F0AEF900220121B3
:10089000124802F06DFA1A21052002F0A5F9012292
:1008A00001210D4802F064FA02F000F90023FB6315
:1008B0000121034801F05CFF5AE700BF540000200B
:1008C00000080040000C0240582E0008602E00086E
:1008D000642E00086C2E0008702E0008802E000880
:1008E00080B500AF0021024800F0D4FD00BF80BDFC
:1008F0005400002080B483B000AF0346FB710C4B62
:1009000000221A700A4B00221A70FB79012B02D0C8
:10091000042B04D007E0064B01221A7003E0044BBD
:1009200005221A7000BF00BF0C37BD4680BC70475F
:100930007038024080B483B000AF0346FB71044AB4
:10094000FB79136000BF0C37BD4680BC704700BF09
:10095000800E474280B485B000AF78600023FB6012
:100960007B6803F44073B3F5407F11D10F4B9B6854
:10097000FB60FB6823F4F813FB607B6823F0704393
:1009800023F44073FA681343FB60084AFB689360E2
:100990000649064B1A6F7B68C3F30B0313430B67BF
:1009A00000BF1437BD4680BC704700BF003802400E
:1009B00080B483B000AF0346FB71044AFB79136037
:1009C00000BF0C37BD4680BC704700BF3C0E47429D
:1009D00080B483B000AF78600B46FB70FB78002BCF
:1009E00006D00949084B1A6B7B6813430B6306E07A
:1009F0000549054B1A6B7B68DB4313400B6300BF53
:100A00000C37BD4680BC70470038024080B483B0CC
:100A100000AF78600B46FB70FB78002B06D00949CD
:100A2000084B1A6C7B6813430B6406E00549054BC1
:100A30001A6C7B68DB4313400B6400BF0C37BD4668
:100A400080BC70470038024080B483B000AF78604B
:100A50000B46FB70FB78002B06D00949084B5A6CFB
:100A60007B6813434B6406E00549054B5A6C7B6871
:100A7000DB4313404B6400BF0C37BD4680BC70475E
:100A80000038024080B487B000AF0346FB710023FA
:100A9000FB6000237B610023FB74FB795B09DBB205
:100AA000FB60FB68012B03D1124B1B687B6109E0E3
:100AB000FB68022B03D10F4B1B6F7B6102E00D4BD8
:100AC0005B6F7B61FB7903F01F03FB607A69FB6856
:100AD00022FA03F303F00103002B02D00123FB747D
:100AE00001E00023FB74FB7C18461C37BD4680BC2C
:100AF000704700BF0038024080B584B002AF786014
:100B00000B46FB707B68184A93420AD1F9780023A0
:100B100001934FF48273009320230022124800F0C7
:100B20004BF87B68114A93420AD1F978002301936C
:100B30004FF482730093202300220C4800F03CF80D
:100B40007B680B4A93420AD1F978002301934FF452
:100B50008273009320230022054800F02DF800BF87
:100B60000837BD4680BD00BF00300140003800405E
:100B7000003C004080B483B000AF78600B46FB704F
:100B8000FB789AB27B689A8100BF7B681B899BB215
:100B900003F00303002BF8D07B681B899BB203F0A2
:100BA0008003002BF1D17B689B899BB2DBB2184696
:100BB0000C37BD4680BC704780B588B000AF786008
:100BC000084611461A460346FB700B46BB70134697
:100BD0003B8007F10C03184600F0CEFE7B68394AD3
:100BE00093420BD1384A384B5B6C43F480535364C7
:100BF000FB78184600F06EF800233B827B68334A8E
:100C000093420BD1304A304B1B6C43F48043136446
:100C1000FB78184600F08EF800233B827B682C4A54
:100C200093420BD1284A284B1B6C43F400431364B6
:100C3000FB78184600F0C8F800233B823B883B83D2
:100C40000023BB81BB8D7B833B8DFB81BB78002B5D
:100C500004D100237B820023BB8216E0BB78012BEA
:100C600004D100237B820123BB820EE0BB78022BE0
:100C700004D102237B820023BB8206E0BB78032BD6
:100C800003D102237B820123BB824FF40073FB82DA
:100C90007B681B889BB223F040039AB27B681A8062
:100CA00007F10C031946786800F022FE7B681B8868
:100CB0009BB243F040039AB27B681A8000BF203792
:100CC000BD4680BD00300140003802400038004081
:100CD000003C004080B584B002AF0346FB71FB7955
:100CE000002B09D105230193032300930023002245
:100CF000E0210D4800F068FFFB79012B09D10523A5
:100D0000019303230093002300223821074800F0B9
:100D10005BFFFB79032B02D10548AFF3008000BFD6
:100D20000837BD4680BD00BF0000024000040240FD
:100D30000030014080B584B002AF0346FB71FB79FF
:100D4000002B14D1052301930323009300230022D9
:100D50004FF48061184800F037FF05230193032307
:100D60000093002300220C21144800F02DFFFB7992
:100D7000012B0AD1052301930323009300230022B2
:100D80004FF460410C4800F01FFFFB79022B09D1A2
:100D90000523019303230093002300220D2108481B
:100DA00000F012FFFB79032B02D10648AFF300805D
:100DB00000BF0837BD4680BD000402400008024065
:100DC000002002400038004080B584B002AF0346E6
:100DD000FB71FB79002B09D10623019303230093B8
:100DE0000023002238210D4800F0EEFEFB79012B94
:100DF0000AD10623019303230093002300224FF41A
:100E0000E051074800F0E0FEFB79032B02D10548D2
:100E1000AFF3008000BF0837BD4680BD000402402C
:100E200000080240003C004080B487B000AF78600A
:100E3000396000237B6100233B610023FB600023BA
:100E40007B6176E001227B6902FA03F33B613B6838
:100E50001A683B691340FB60FA683B699A4265D1A6
:100E60007B681A687B695B00032101FA03F3DB43AB
:100E70001A407B681A607B681A683B681B791946C0
:100E80007B695B0001FA03F31A437B681A603B68D5
:100E90001B79012B03D03B681B79022B2ED17B6879
:100EA0009A687B695B00032101FA03F3DB431A4074
:100EB0007B689A607B689A683B685B7919467B69B6
:100EC0005B0001FA03F31A437B689A607B685A68F7
:100ED0007B699BB2012101FA03F3DB431A407B6873
:100EE0005A607B685A683B689B7919467B699BB25C
:100EF00001FA03F39BB21A437B685A607B68DA6895
:100F00007B699BB25B00032101FA03F3DB431A40C8
:100F10007B68DA607B68DA683B68DB7919467B6955
:100F20005B0001FA03F31A437B68DA607B690133E3
:100F30007B617B690F2B85D900BF1C37BD4680BC08
:100F4000704700BF80B483B000AF78600B467B80F1
:100F50007B687A881A8300BF0C37BD4680BC704717
:100F600080B483B000AF78600B467B807B687A8862
:100F70005A8300BF0C37BD4680BC704780B483B035
:100F800000AF78600B467B807B685A697B885A404B
:100F90007B685A6100BF0C37BD4680BC704700BFFC
:100FA00080B500AF124A124B1B6843F00103136077
:100FB0000F4B00229A600E4A0D4B1B6823F084737E
:100FC00023F4803313600A4B0A4A5A60084A084BDC
:100FD0001B6823F480231360054B0022DA6000F0C5
:100FE0000DF8054B4FF000629A6000BF80BD00BF56
:100FF000003802401030002400ED00E080B483B0DF
:1010000000AF00237B6000233B60354A344B1B68F4
:1010100043F480331360324B1B6803F400333B60AE
:101020007B6801337B603B68002B03D17B68B3F5A1
:10103000A06FF0D12A4B1B6803F40033002B02D0C1
:1010400001233B6001E000233B603B68012B42D160
:10105000234A234B1B6C43F080531364214A214BDA
:101060001B6843F4804313601D4A1D4B9B689360CB
:101070001B4A1B4B9B6843F400439360184A184B70
:101080009B6843F4A0539360154B174A5A60144A67
:10109000134B1B6843F08073136000BF104B1B6839
:1010A00003F00073002BF9D0104B40F205621A6078
:1010B0000B4A0B4B9B6823F003039360084A084BD1
:1010C0009B6843F00203936000BF054B9B6803F0ED
:1010D0000C03082BF9D100BF0C37BD4680BC70470C
:1010E000003802400070004019544007003C0240A4
:1010F00080B588B000AF0346FB710123FB77012167
:101100004FF08050FFF782FC0120FFF77FF813209B
:1011100001F0AEF9B861BB6944F22132934220D1AB
:10112000394B44F221321A60FB79002B02D10020A6
:1011300000F000FA002000F0BFFE00F01DFF0120CB
:1011400000F0BAFE4FF4804001F018FA2F4B4FF434
:1011500080025A6107F108030021184600F09AF94D
:1011600046E0BB6941F23422934220D1264B41F242
:1011700034221A60FB79002B02D1002000F0DAF94A
:10118000002000F099FE00F0F7FE012000F094FE30
:101190004FF4804001F0F2F91C4B4FF480025A6189
:1011A00007F108030021184600F074F920E0164BFF
:1011B00000221A600023FB77FB79184600F0BAF989
:1011C0000123FB730123BB7301233B7400237B7456
:1011D00000237B7300233B7300233B7207F108035A
:1011E0000021184600F014F8074B41F234221A602F
:1011F000FB7F002B01D1002301E0034B1B68184645
:101200002037BD4680BD00BF18000020003C0140D3
:1012100090B587B000AF78600B46FB70FB78012B70
:1012200077D17B68DB791B09DBB21A469200134445
:101230005B00DAB27B68DB7903F00F03DBB21344A7
:10124000DBB2FB737B681B7A1B09DBB21A46920088
:1012500013445B00DAB27B681B7A03F00F03DBB246
:101260001344DBB23B747B685B7A1B09DBB21A4622
:10127000920013445B00DAB27B685B7A03F00F03E1
:10128000DBB21344DBB27B747B685B791B09DBB296
:101290001A46920013445B00DAB27B685B7903F074
:1012A0000F03DBB21344DBB27B737B681B791B0932
:1012B000DBB21A46920013445B00DAB27B681B79FA
:1012C00003F00F03DBB21344DBB23B737B681B7884
:1012D0001B09DBB21A46920013445B00DAB27B684A
:1012E0001B7803F00F03DBB21344DBB23B727B6865
:1012F0009B791B09DBB21A46920013445B00DAB2F9
:101300007B689B7903F00F03DBB21344DBB2BB7342
:1013100014E07B68DB79FB737B681B7A3B747B682A
:101320005B7A7B747B685B797B737B681B793B732F
:101330007B681B783B727B689B79BB737B7C632BE0
:101340004BD83B7C002B48D03B7C0C2B45D8FB7BFF
:10135000002B42D0F97B7B7C03F00303002B0ED1E2
:101360007B7C03F5FA62454B83FB02035811D317CC
:10137000C31A642000FB03F3D31A002B0FD17B7C2C
:1013800003F5FA623D4B83FB0203D811D317C31A4E
:101390004FF4C87000FB03F3D31A002B01D10122D4
:1013A00000E000223B7C581E354C13465B00134482
:1013B0009B00234403441B7899420ED87B7B172B58
:1013C0000BD83B7B3B2B08D83B7A3B2B05D8BB7B10
:1013D000002B02D0BB7B072B01D901234AE07B689D
:1013E0005A79284B1A707B681A79264B5A707B6899
:1013F0001A78244B9A707B68DA79234B9A707B6851
:101400001A7A214B5A707B685A7A1F4BDA707B68C4
:101410009A791D4B1A701D4B00221A601B4B1F221C
:101420005A601A4B40F2FF329A60184800F008FDEB
:10143000FB78012B04D11349012000F0D7FD03E014
:101440001049002000F0D2FDFB78012B04D10E4999
:10145000012000F09FFE03E00B49002000F09AFEFF
:101460000B4B1B68002B04D044F22131132000F0F9
:10147000E5FF002318461C37BD4690BD1F85EB5184
:101480000000002098000020A80000209C00002000
:101490001800002080B584B000AF78600B46FB7068
:1014A000FB78002B04D12049002000F021FE03E04E
:1014B0001D49012000F01CFE1B4B1A787B685A71F5
:1014C000194B5A787B681A71174B9A787B681A7097
:1014D000164B9B6A9AB27B685A80FB78002B04D12A
:1014E0001349002000F0DCFE03E01149012000F068
:1014F000D7FE0F4BDA787B685A720D4B5A787B68AF
:101500001A720B4B9A787B68DA71094B1A787B68F0
:101510009A71786800F0ECF8F8607B68FA68DA6035
:1015200000BF1037BD4680BD980000200028004055
:10153000A800002080B582B000AF0346FB71FB79A4
:10154000002B0ED10120FFF7F5F900BF6120FFF756
:1015500099FA0346002BF9D04FF40070FFF7FAF91F
:1015600010E0FB79012B0DD10120FFF7C3F900BF7B
:101570004120FFF787FA0346002BF9D04FF4807023
:10158000FFF7E8F90120FFF713FA002000F094FCC0
:1015900000F0F2FC012000F08FFC41F23421132016
:1015A00000F04CFF00BF0837BD4680BD80B584B059
:1015B00000AF0346FB71494B4FF480025A61002093
:1015C00000F0F4FE00214FF4804000F067FF444B30
:1015D00003221A70424B04225A70414B00229A7027
:1015E0003F4B0022DA703E4800F08EFA3D4B4FF43C
:1015F00080021A603B4B00221A713A4B08225A7142
:10160000384B00229A71374800F0DAF9FB79002B49
:101610005FD0334B0122DA70314800F075FA314B5C
:1016200001229A712F4800F0CBF9002000F0BEFE95
:10163000FB79012B02D12C4BFB603CE0FB79022BA8
:1016400002D12A4BFB6036E0FB79032B03D14EF627
:10165000FF73FB602FE0FB79042B03D149F6FF7386
:10166000FB6028E0FB79052B03D144F6FF73FB6098
:1016700021E0FB79062B03D141F6FF73FB601AE0F2
:10168000FB79072B03D140F6FF73FB6013E0FB7976
:10169000082B03D140F2FF73FB600CE0FB79092BB0
:1016A00003D140F2FF33FB6005E0FB790A2B02D146
:1016B00040F2FF13FB60012000F040FEF86800F0EC
:1016C0005DFE01214FF4804000F0E8FE012000F0B3
:1016D0006DFE00BF1037BD4680BD00BF003C01401D
:1016E000AC000020B0000020FFBF0300FFDF0100BE
:1016F00080B487B000AF786000237B610023FB607B
:101700007B685B7A9BB203F5FA637B817B8940F24D
:10171000B172934201D8002396E040F2B2737B820B
:1017200029E07B8A03F003039BB2002B0BD17B8A59
:10173000484AA2FB03125209642101FB02F29B1AE0
:101740009BB2002B0CD17B8A424AA2FB0312D20926
:101750004FF4C87101FB02F29B1A9BB2002B02D11D
:101760004FF4B77301E040F26D137A6913447B6163
:101770007B8A01337B827A8A7B899A42D1D3012387
:101780007B8232E07B8903F003039BB2002B0BD1F9
:101790007B89304AA2FB03125209642101FB02F249
:1017A0009B1A9BB2002B0CD17B892A4AA2FB031205
:1017B000D2094FF4C87101FB02F29B1A9BB2002BB5
:1017C00001D1012200E000227B8A591E22481346E3
:1017D0005B0013449B0003440B441B781A467B694F
:1017E00013447B617B8A01337B827B681B7A9BB2CB
:1017F0007A8A9A42C6D37B68DB791A467B6913449E
:10180000013B7B617B69154A02FB03F3FB607B684C
:101810005B791A464FF4616303FB02F31A46FB68D7
:101820001344FB607B681B791A4613461B019B1A05
:101830009B001A46FB681344FB607B681B781A46C2
:10184000FB681344FB60FB6818461C37BD4680BC30
:10185000704700BF1F85EB51000000208051010040
:1018600080B400AF00BFBD4680BC704780B400AFFD
:1018700000BFBD4680BC704780B500AF4FF48040CC
:1018800000F048FE0346002B05D04FF4804000F0E6
:1018900075FEFFF725F8034B4FF480025A6100BF35
:1018A00080BD00BF003C014080B500AF4FF48050C8
:1018B00000F030FE0346002B05D04FF4805000F0BE
:1018C0005DFEFFF7CDFF4FF4005000F023FE03460E
:1018D000002B05D04FF4005000F050FEFFF7C6FF7C
:1018E000024B4FF400325A6100BF80BD003C014002
:1018F00080B485B000AF786039600023FB817B68DD
:101900001B88FB81FB8903F44153FB813B681A88E8
:101910003B685B8813439AB23B689B8813439AB237
:101920003B68DB8813439AB23B681B8913439AB226
:101930003B685B8913439AB23B689B8913439AB215
:101940003B68DB8913439AB2FB891343FB817B68B5
:10195000FA891A807B689B8B9BB223F400639AB24E
:101960007B689A833B681A8A7B681A8200BF1437A7
:10197000BD4680BC704700BF80B483B000AF7860C4
:101980007B6800221A807B6800225A807B680022D4
:101990009A807B680022DA807B6800221A817B684B
:1019A00000225A817B6800229A817B680022DA81BA
:1019B0007B6807221A8200BF0C37BD4680BC704787
:1019C00080B485B000AF78600023FB60344BFB60CF
:1019D0007B689B79002B4FD03149314B1A687B686B
:1019E0001B68DB4313400B602D492D4B5A687B6805
:1019F0001B68DB4313404B607B681B791A46FB680E
:101A00001344FB60FB68FA6811687A6812680A433D
:101A10001A602349224B9A687B681B68DB4313409A
:101A20008B601F491E4BDA687B681B68DB431340E1
:101A3000CB607B685B79102B0ED11949184B9A68E3
:101A40007B681B6813438B601549154BDA687B680C
:101A50001B681343CB601DE0114BFB607B685B7917
:101A60001A46FB681344FB60FB68FA6811687A68E1
:101A700012680A431A600DE07B681B791A46FB68FE
:101A80001344FB60FB68FA6811687A681268D243F5
:101A90000A401A6000BF1437BD4680BC704700BFC3
:101AA000003C014080B485B000AF78600023FB7338
:101AB0000023BB600C4B1A687B681340BB600A4B69
:101AC0005A697B681340002B05D0BB68002B02D0FD
:101AD0000123FB7301E00023FB73FB7B18461437E3
:101AE000BD4680BC704700BF003C014080B483B05D
:101AF00000AF7860034A7B68536100BF0C37BD4676
:101B000080BC7047003C014080B485B000AF786075
:101B10000023FB730023BB730F237B737B68DB788D
:101B2000002B38D0264BDB68DB4303F4E0631B0A51
:101B3000FB73FB7BC3F10403BB737A7BFB7B42FA31
:101B400003F37B737B685B781A46BB7B02FA03F373
:101B5000FB737B689A787B7B1340DAB2FB7B134381
:101B6000FB73FB7B1B01FB73164A7B681B781344DA
:101B7000FA7B83F80023134A7B681B785B09DBB28E
:101B800018467B681B7803F01F03012101FA03F359
:101B900042F820300FE00B497B681B785B09DBB211
:101BA00018467B681B7803F01F0301229A4000F15E
:101BB000200341F8232000BF1437BD4680BC704786
:101BC00000ED00E000E100E080B586B002AF786093
:101BD000084611461A4603467B800B467B70134627
:101BE0003B707B88002B3ED0786800F041F80023E2
:101BF000FB6029E07A88FB6842FA03F303F00103F3
:101C0000002B1DD0FB68DA08FB68D9087B68083117
:101C100053F82130F96801F0070189000F2000FA1C
:101C200001F1C9430B40387FF96801F007018900D1
:101C300000FA01F119437B68083243F8221000E0F2
:101C400000BFFB680133FB60FB680F2BD2D97A78A9
:101C500079883B7E01933B78009313460222786893
:101C600000F07EF800E000BF1037BD4680BD00BF29
:101C700080B483B000AF78607B682F4A934205D16F
:101C80002E4A2E4B1B6B43F0010313637B682C4AD7
:101C9000934205D1294A294B1B6B43F0020313637E
:101CA0007B68284A934205D1244A244B1B6B43F09E
:101CB000040313637B68244A934205D11F4A1F4BD8
:101CC0001B6B43F0080313637B68204A934205D1E2
:101CD0001A4A1A4B1B6B43F0100313637B681C4AB0
:101CE000934205D1154A154B1B6B43F02003136338
:101CF0007B68184A934205D1104A104B1B6B43F086
:101D0000400313637B68144A934205D10B4A0B4B83
:101D10001B6B43F0800313637B68104A934205D129
:101D2000064A064B1B6B43F48073136300BF0C37EA
:101D3000BD4680BC704700BF000002400038024032
:101D40000004024000080240000C02400010024063
:101D50000014024000180240001C02400020024013
:101D600080B485B000AF7860084611461A46034635
:101D70007B800B467B7013463B700023FB7356E061
:101D80007A88FB7B42FA03F303F00103002B4AD06D
:101D90007B681A68FB7B5B00032101FA03F3DB43DA
:101DA00013407978FA7B520001FA02F21A437B68F9
:101DB0001A607B78012B02D07B78022B21D17B68C3
:101DC0005B68FA7B012101FA02F292B2D2431A4017
:101DD0003978FB7B01FA03F39BB21A437B685A60A4
:101DE0007B689A68FB7B5B00032101FA03F3DB430A
:101DF0001340397FFA7B520001FA02F21A437B68E2
:101E00009A607B68DB68FA7B5200032101FA02F2D8
:101E1000D2431340397EFA7B520001FA02F21A4390
:101E20007B68DA6000E000BFFB7B0133FB73FB7B68
:101E30000F2BA5D900BF1437BD4680BC704700BF2B
:101E400080B584B000AF78600023FB73194BCA22C1
:101E50005A62184B53225A6200F048F80346002B8E
:101E600002D10023FB731CE0124A124B9B6823F043
:101E7000400393600F490F4B9A687B681B681343BC
:101E80008B600C4A7B689B6813610A49094B1A698D
:101E90007B685B681B0413430B6100F05FF8012350
:101EA000FB73044BFF225A62FB7B18461037BD467A
:101EB00080BD00BF0028004080B483B000AF03465F
:101EC000FB71FB79002B03D0074BFF225A6205E020
:101ED000054BCA225A62044B53225A6200BF0C3788
:101EE000BD4680BC704700BF0028004080B485B06C
:101EF00000AF00237B600023FB730023BB60164B05
:101F0000DB6803F04003002B1ED1134B4FF0FF3270
:101F1000DA60114BDB6803F04003BB607B68013380
:101F20007B607B68B3F5803F02D0BB68002BF0D0AC
:101F3000094BDB6803F04003002B02D00123FB7345
:101F400004E00023FB7301E00123FB73FB7B1846D5
:101F50001437BD4680BC70470028004080B400AFF5
:101F6000044A044BDB6823F08003D36000BFBD4606
:101F700080BC70470028004080B485B000AF0023CB
:101F80007B600023FB730023BB60174BCA225A629D
:101F9000154B53225A62144A134BDB6823F0A003FB
:101FA000D360114BDB6803F02003BB607B68013317
:101FB0007B607B68B3F5003F02D0BB68002BF0D09C
:101FC000094BDB6803F02003002B02D00123FB73D5
:101FD00001E00023FB73044BFF225A62FB7B18468F
:101FE0001437BD4680BC70470028004090B585B0CE
:101FF00000AF786039600023FB600023FB727B68D0
:10200000002B09D1394B9B6803F04003002B14D1FE
:102010003B680022DA7010E0344B9B6803F0400309
:10202000002B07D03B681B78184600F0DFFA034608
:10203000FB6002E03B680022DA707B68002B0FD067
:102040003B681B781A043B685B781B0213433A68B1
:1020500092781A433B68DB781B041343FB601BE058
:102060003B681B78184600F0A5FA03461C043B6841
:102070005B78184600F09EFA03461B021C433B683F
:102080009B78184600F096FA034644EA03023B6840
:10209000DB781B041343FB60144BCA225A62134BB8
:1020A00053225A62FFF722FF0346002B02D100237E
:1020B000FB7212E00D4AFB6803F07F3323F0FE430E
:1020C0001360FFF74BFFFFF757FF0346002B02D1CA
:1020D0000023FB7201E00123FB72044BFF225A62D2
:1020E000FB7A18461437BD4690BD00BF002800405B
:1020F00080B584B000AF786039600023FB60244B6A
:102100001B6803F07F3323F0FE43FB60FB681B0C6E
:10211000DBB203F03F03DAB23B681A70FB681B0ABC
:10212000DBB203F07F03DAB23B685A70FB68DBB2C4
:1021300003F07F03DAB23B689A70FB681B0CDBB2DA
:1021400003F04003DAB23B68DA707B68002B1AD1E7
:102150003B681B78184600F049FA03461A463B686C
:102160001A703B685B78184600F040FA03461A463E
:102170003B685A703B689B78184600F037FA034674
:102180001A463B689A7000BF1037BD4680BD00BF3D
:102190000028004090B585B000AF7860396000231A
:1021A000FB600023FB727B68002B0ED13B685B78E1
:1021B00003F01003002B08D03B685B7823F010037A
:1021C000DBB20A33DAB23B685A707B68002B0DD061
:1021D0003B685B78184600F009FA0346FB603B68F1
:1021E0009B78184600F002FA0346FB607B68002BE0
:1021F0000FD03B68DB781A043B685B781B02134303
:102200003A6892781A433B681B785B031343FB6080
:102210001BE03B68DB78184600F0CCF903461C0451
:102220003B685B78184600F0C5F903461B021C4367
:102230003B689B78184600F0BDF9034644EA030268
:102240003B681B785B031343FB60144BCA225A6242
:10225000124B53225A62FFF749FE0346002B02D16C
:102260000023FB7212E00D4AFB6823F07F4323F04A
:10227000C0035360FFF772FEFFF77EFE0346002B9C
:1022800002D10023FB7201E00123FB72034BFF220A
:102290005A62FB7A18461437BD4690BD00280040AC
:1022A00080B584B000AF786039600023FB60224BBA
:1022B0005B6823F07F4323F0C003FB60FB681B0CCB
:1022C000DAB23B68DA70FB681B0ADBB203F01F036B
:1022D000DAB23B685A70FB68DBB203F03F03DAB254
:1022E0003B689A70FB685B0BDBB203F00703DAB262
:1022F0003B681A707B68002B1AD13B68DB78184664
:1023000000F074F903461A463B68DA703B685B7864
:10231000184600F06BF903461A463B685A703B6852
:102320009B78184600F062F903461A463B689A709B
:1023300000BF1037BD4680BD0028004080B483B088
:1023400000AF78600C4BCA225A620B4B53225A6280
:10235000094A094B9B6823F0070393600649064B23
:102360009A687B6813438B60034BFF225A6200BF5D
:102370000C37BD4680BC70470028004080B483B055
:1023800000AF7860084BCA225A62074B53225A6248
:10239000054A7B685361044BFF225A6200BF0C3729
:1023A000BD4680BC704700BF0028004080B487B0A5
:1023B00000AF0346FB710023FB6000233B61002359
:1023C000FB751D4BCA225A621B4B53225A62FB7982
:1023D000002B08D0184A184B9B6843F48063936025
:1023E0000123FB751FE0144A134B9B6823F48063A1
:1023F0009360114BDB6803F004033B61FB6801331E
:10240000FB60FB68B3F5803F02D03B69002BF0D046
:10241000094BDB6803F00403002B02D10023FB759A
:1024200001E00123FB75044BFF225A62FB7D184635
:102430001C37BD4680BC70470028004080B485B082
:1024400000AF786039600023FB60084BFB607B685D
:102450009A00FB681344FB60FB681A463B681360F4
:1024600000BF1437BD4680BC704700BF50280040F5
:1024700080B485B000AF78600023FB60064BFB6042
:102480007B689A00FB681344FB60FB681B68184676
:102490001437BD4680BC70475028004080B483B0DC
:1024A00000AF78600B46FB70194BCA225A62184B7A
:1024B00053225A62FB78002B10D01549144B9A68AE
:1024C0007B6823F0040313438B601149104B1A6C93
:1024D0007B6803F0040313430B6411E00C490C4BBD
:1024E0009A687B6823F00403DB4313408B60084940
:1024F000074B1A6C7B6803F00403DB4313400B6447
:10250000034BFF225A6200BF0C37BD4680BC7047A8
:102510000028004080B487B000AF78600023FB75CE
:1025200000233B610023FB60134B1B6C03F004038F
:102530003B61114B9A687B681A407B68D90B3B69F9
:102540000B401343FB600C4BDA687B681B0913409C
:102550003B61FB68002B06D03B699BB2002B02D08D
:102560000123FB7501E00023FB75FB7D18461C373A
:10257000BD4680BC704700BF0028004080B485B0D5
:1025800000AF78600023FB607B681B09FB60084993
:10259000FB689BB243F08003DA43054BDB6803F032
:1025A00080031343CB6000BF1437BD4680BC704727
:1025B0000028004080B485B000AF0346FB710023C3
:1025C000FB7305E0FB7B0133FB73FB790A3BFB717B
:1025D000FB79092BF6D8FB7B1B01DAB2FB7913439D
:1025E000DBB218461437BD4680BC704780B485B056
:1025F00000AF0346FB710023FB73FB791B09DBB2C1
:102600001A46920013445B00FB73FB7903F00F033F
:10261000DAB2FB7B1344DBB218461437BD4680BCEC
:10262000704700BF80B485B000AF78603960002388
:10263000FB817B681B88FB817B68284A934213D00F
:102640007B68274A93420FD07B68B3F1804F0BD051
:102650007B68244A934207D07B68234A934203D085
:102660007B68224A934208D1FB8923F07003FB81E7
:102670003B685A88FB891343FB817B681C4A934261
:102680000CD07B681B4A934208D0FB8923F440732B
:10269000FB813B681A89FB891343FB817B68FA89BC
:1026A0001A803B685A687B68DA623B681A887B68E4
:1026B0001A857B68094A934203D07B68084A934293
:1026C00004D13B689B7A9AB27B681A867B680122A8
:1026D0009A8200BF1437BD4680BC7047000001409D
:1026E000000401400004004000080040000C0040CD
:1026F000001000400014004080B483B000AF786048
:102700000B46FB70FB78002B08D07B681B889BB2C4
:1027100043F001039AB27B681A8007E07B681B884C
:102720009BB223F001039AB27B681A8000BF0C377A
:10273000BD4680BC704700BF80B485B000AF7860F4
:102740000B467B800023FB737B681B8A9AB27B88D5
:1027500013409BB2002B02D00123FB7301E0002346
:10276000FB73FB7B18461437BD4680BC704700BF27
:1027700080B483B000AF78600B467B807B88DB43FE
:102780009AB27B681A8200BF0C37BD4680BC704786
:1027900080B582B000AF01210420FEF719F90023B3
:1027A000BB710023FB7103237B7101233B714FF449
:1027B00000433B603B4619461248FEF735FB4FF499
:1027C00080433B603B4619460E48FEF72DFB4FF415
:1027D00000533B603B4619460A48FEF725FB4FF481
:1027E00000410848FEF7AEFB4FF400510548FEF7E4
:1027F000A9FB00210448FEF77FF900BF0837BD465A
:1028000080BD00BF000802400038004080B582B0A3
:1028100000AF0346FB714FF400510848FEF7A0FBE0
:10282000FB7919460648FEF7A5F94FF40051034815
:10283000FEF788FB00BF0837BD4680BD0008024098
:102840000038004080B582B000AF03460A46FB71F5
:102850001346BB71FB79012B02D0022B0FD01DE078
:10286000BB79002B05D04FF480410E48FEF76AFB80
:1028700014E04FF480410B48FEF772FB0EE0BB7989
:10288000002B05D04FF400410648FEF75BFB04E047
:102890004FF400410348FEF763FB00BF00BF083759
:1028A000BD4680BD0008024080B485B000AF7860AE
:1028B0000023FB6002E0FB680133FB60FA687B6881
:1028C0009A42F8D300BF1437BD4680BC704700BFA2
:1028D00080B582B000AF0346FB71FFF759FF0021BE
:1028E0000220FFF7AFFF42F21070FFF7DDFF01217A
:1028F0000220FFF7A7FF2121002000F027F8142174
:10290000002000F023F897F90730002B01DA7F232D
:10291000FB71FB7963F07F03DBB21946002000F006
:1029200015F82021002000F011F80C21002000F003
:102930000DF800F0AFF80C21002000F007F800F0CF
:1029400083F800BF0837BD4680BD00BF80B582B0A8
:1029500000AF03460A46FB711346BB71FB79002B9F
:1029600007D0012B00D009E001210120FFF76AFF09
:1029700004E000210120FFF765FF00BFBB79184686
:10298000FFF744FF00BF0837BD4680BD80B582B069
:1029900000AF0346FB710B46BB7113467B71FB799D
:1029A000532B49D8BB792F2B48D87B79002B1DD0CE
:1029B000FA79BB79DB08D8B20146542303FB01F353
:1029C0001344F979542202FB00F20A441D498A5C3F
:1029D00051B2BA7902F00702012000FA02F252B2B3
:1029E0000A4352B2D1B2174AD1541EE0FA79BB79E8
:1029F000DB08D8B20146542303FB01F31344F979F1
:102A0000542202FB00F20A440E498A5C51B2BA79A0
:102A100002F00702012000FA02F252B2D24352B28F
:102A20000A4052B2D1B2074AD154BB79FA79B97986
:102A3000F87900F09DF802E000BF00E000BF083721
:102A4000BD4680BDBC00002080B582B000AF00F064
:102A500021F800237B6007E00D4A7B6813440022C5
:102A60001A707B6801337B607B68B3F5FC7FF3D31E
:102A70000021002000F0B8F82F235322002100206D
:102A800000F076F800F012F800BF0837BD4680BDB0
:102A9000BC00002080B500AF80210020FFF756FF6A
:102AA00040210020FFF752FF00BF80BD80B582B0FB
:102AB00000AF0023FB713BE0284B1B781A46FB79E3
:102AC0000133DB009A422FDCFB79DB00244A1278C9
:102AD000934231DCFB7943F04003DBB2194600201E
:102AE000FFF734FF1F4B1B7863F07F03DBB21946FF
:102AF0000020FFF72BFF1B4B1B78BB710EE0FB790F
:102B0000542202FB03F2BB791344174AD35C1946E3
:102B10000120FFF71BFFBB790133BB71134B1B78FF
:102B2000BA799A42EBD900E000BFFB790133FB711F
:102B3000FB79052BC0D900E000BF0A4B53221A7065
:102B40000A4B00221A70054B2F221A70044B0022E8
:102B50001A7000BF0837BD4680BD00BF1E000020B0
:102B60001F0000201C000020BC0000201D000020D1
:102B700090B482B000AF0446084611461A46234678
:102B8000FB710346BB710B467B7113463B71124BC5
:102B90001B78FA799A4202D20F4AFB7913700F4BD5
:102BA0001B787A799A4202D90C4A7B7913700C4BC4
:102BB0001B78BA799A4202D2094ABB791370094B41
:102BC0001B783A799A4202D9064A3B79137000BFC2
:102BD0000837BD4690BC70471C0000201D00002037
:102BE0001E0000201F00002080B483B000AF034609
:102BF0000A46FB711346BB71054AFB791370054AFF
:102C0000BB79137000BF0C37BD4680BC704700BF56
:102C1000B9000020B800002080B584B000AF0346A2
:102C2000FB710B46BB7113467B717B79012B04D181
:102C30000423BB730623FB7303E00623BB73082343
:102C4000FB73474B1B781A46BB7B1344542B09DD9F
:102C5000444B1A78FB7B1344DAB2424B1A70404B58
:102C600000221A7000237B736BE0FB791F2B1CD9A9
:102C70007B79012B0CD1FB79A3F12002797B3A48B7
:102C800013465B00134403440B441B783B730CE076
:102C9000FB79A3F12002797B344813465B0013448F
:102CA0005B0003440B441B783B733B7B002B05D13B
:102CB000FB79002B02D0FB79202B3ED10023FB7245
:102CC00030E0BB79012B15D1254B1878254B1A78AC
:102CD000FB7A1344D9B23A7BFB7A42FA03F303F04E
:102CE0000103002B14BF01230023DBB21A46FFF7B8
:102CF0004DFE14E01A4B18781A4B1A78FB7A1344DD
:102D0000D9B23A7BFB7A42FA03F303F00103002BBA
:102D10000CBF01230023DBB21A46FFF737FEFB7A14
:102D20000133FB72FA7AFB7B9A42CAD30C4B1B78B5
:102D30000133DAB20A4B1A7000E000BF7B7B01332B
:102D40007B737A7BBB7B013B9A428EDB044B1B7807
:102D50000133DAB2024B1A7000BF1037BD4680BD96
:102D6000B9000020B8000020CC300008842E0008F4
:102D700080B582B000AF78600B46FB701346BB7025
:102D800008E07B685A1C7A601B78BA78F978184694
:102D9000FFF742FF7B681B78002BF2D100BF08379A
:102DA000BD4680BD931E222B10D80A2A10B506D02E
:102DB00000230C46194400F00FF8204610BD0028EF
:102DC000F6DA2D230B7040420123F2E70020087051
:102DD000704700BFFFF7E6BFF0B5DFF878E01646B2
:102DE00004460F46BEE80F008BB06D460FC5BEE827
:102DF0000F000FC59EE80300B31E45F8040B222BFD
:102E0000297022D87D1E2846002200E01A46B4FB15
:102E1000F6F10AAB06FB114423440C4613F8283C98
:102E200000F8013F531C0029F0D1F954BB184AB1F6
:102E3000197815F8010F29700134111B8C4203F821
:102E40000109F5DB38460BB0F0BD002038700BB03F
:102E5000F0BD00BF0C32000854494D453A00000057
:102E60003A000000414C41524D3A00003A2900001E
:102E7000444154453A323031352D30342D3138000B
:102E80000000000000000000000000002F00000013
:102E9000000700070000147F147F1400242A7F2AF3
:102EA000120032340816260036495522500000051B
:102EB00003000000001C224100000041221C000011
:102EC00014083E08140008083E08080000005030AE
:102ED00000001010101010000060600000002010B2
:102EE000080402003E5149453E0000427F40000078
:102EF0004261514946002141454B31001814127F6F
:102F000010002745454539003C4A494930000171C8
:102F100009050300364949493600064949291E007A
:102F2000003636000000005636000000081422412A
:102F300000001414141414000041221408000201AB
:102F400051090600324959513E007E1111117E008F
:102F50007F49494936003E41414122007F4141229B
:102F60001C007F49494941007F09090901003E4190
:102F700049497A007F0808087F0000417F4100002E
:102F80002040413F01007F08142241007F40404023
:102F900040007F020C027F007F0408107F003E414A
:102FA00041413E007F09090906003E4151215E0072
:102FB0007F091929460046494949310001017F012D
:102FC00001003F4040403F001F2040201F003F4085
:102FD00038403F00631408146300070870080700B6
:102FE000615149454300007F41410000552A552A5F
:102FF00055000041417F00000402010204004040EE
:103000004040400000010204000020545454780065
:103010007F484444380038444444200038444448FD
:103020007F00385454541800087E090102000C52E5
:1030300052523E007F080404780000447D400000A6
:103040002040443D00007F102844000000417F40A4
:1030500000007C04180478007C08040478003844DC
:10306000444438007C1414140800081414187C001C
:103070007C0804040800485454542000043F444091
:1030800020003C4040207C001C2040201C003C4094
:1030900030403C004428102844000C5050503C0064
:1030A0004464544C4400007F3E1C0800081C3E7FD2
:1030B0000000087C7E7C0800103E7E3E10003E3EF4
:1030C0003E3E3E00007F3E1C080000000000000065
:1030D00017000300031F0A1F0A1F050904120F1718
:1030E0001C000300000E11110E00050205040E0461
:1030F0001008000404040010000804021F111F122D
:103100001F101D151711151F07041F17151D1F155B
:103110001D01011F1F151F17151F000A00100A00AF
:10312000040A110A0A0A110A040115030E15161ED3
:10313000051E1F150A0E11111F110E1F15151F0553
:10314000050E151D1F041F111F1108100F1F041B52
:103150001F10101F061F1F0E1F0E110E1F05020E3F
:10316000111E1F0D16121509011F010F100F071850
:10317000071F0C1F1B041B031C031915131F110031
:1031800002040800111F0201021010100102001AAF
:10319000161C1F120C0C12120C121F0C1A16041EF5
:1031A0000506150F1F021C001D0010100D1F0C122C
:1031B000111F101E0E1E1E021C0C120C1E0A0404EF
:1031C0000A1E1C0202141E0A021F120E101E0E10EE
:1031D0000E1E1C1E120C1202141E1A1E16041B11A7
:1031E000001F00111B040406021F1F1F0000000027
:1031F00000000000000000000000000000000000CF
:1032000000000000000000000000000030313233F8
:103210003435363738396162636465666768696A70
:103220006B6C6D6E6F707172737475767778797A76
:04323000000000009A
:103234001F1C1F1E1F1E1F1F1E1F1E1F1F1D1F1EA4
:083244001F1E1F1F1E1F1E1F8D
:0400000508000000EF
:00000001FF
