:020000040800F2
:10000000000800200D0200086902000869020008CB
:100010006902000869020008690200080000000087
:10002000000000000000000000000000690200085D
:100030006902000800000000690200086902000867
:1000400069020008690200086902000869020008E4
:1000500069020008690200086902000869020008D4
:1000600069020008690200086902000869020008C4
:1000700069020008690200086902000869020008B4
:1000800069020008690200086902000869020008A4
:100090006902000869020008690200086902000894
:1000A0006902000869020008690200086902000884
:1000B0006902000869020008690200086902000874
:1000C0006902000869020008690200086902000864
:1000D0006902000869020008690200086902000854
:1000E000810400086902000869020008690200082A
:1000F0006902000869020008690200086902000834
:100100006902000869020008690200086902000823
:100110006902000869020008690200086902000813
:100120006902000869020008690200086902000803
:1001300069020008690200086902000869020008F3
:1001400069020008690200086902000869020008E3
:1001500069020008690200086902000869020008D3
:1001600069020008690200086902000869020008C3
:1001700069020008690200086902000869020008B3
:10018000690200086902000890B484B000AF034619
:100190000A46FB711346BB710023FB60BB7903F079
:1001A00003039B000F2202FA03F3FB601649BB799D
:1001B0009B08DBB21846144ABB799B08DBB20233BA
:1001C00052F82320FB68DB431A40831C41F82320AC
:1001D0000D48BB799B08DBB21C460B4ABB799B08D8
:1001E000DBB2023352F82320F979BB7903F0030321
:1001F0009B0001FA03F31A43A31C40F8232000BF1D
:100200001037BD4690BC70470038014080B582B0C1
:1002100000AF104B7B60104B3B6007E03B681A1D42
:100220003A607A68111D796012681A603B680B4A5F
:100230009342F3D30A480B494FF000028842B8BFFB
:1002400040F8042BFADB00F00DFA00BF0837BD467A
:1002500080BD00BFA80B00080000002000000020A7
:10026000000000200000002080B400AFFEE700BFC7
:1002700080B586B000AF0121022000F003FA012111
:100280004FF4804000F01CFA00233B750023BB753F
:100290004FF400633B610123FB7503237B7507F17A
:1002A00010031946124800F029FA0B210120FFF72C
:1002B0006BFF4FF40063BB600123BB7300233B73F0
:1002C00010237B7307F10803184600F069FB28230D
:1002D0003B7100237B710123BB710123FB713B1D2B
:1002E000184600F001FC00BF1837BD4680BD00BFB6
:1002F0000004024080B586B000AF0121022000F06A
:10030000C1F901214FF4804000F0DAF900233B7578
:100310000023BB754FF480533B610123FB7503231E
:100320007B7507F110031946124800F0E7F90C211C
:100330000120FFF729FF4FF48053BB600123BB73FB
:1003400000233B7310237B7307F10803184600F06A
:1003500027FB28233B7100237B710123BB71012301
:10036000FB713B1D184600F0BFFB00BF1837BD46B0
:1003700080BD00BF0004024080B586B000AF0121FF
:10038000022000F07FF901214FF4804000F098F93D
:1003900000233B750023BB754FF400533B610123E1
:1003A000FB7503237B7507F110031946124800F013
:1003B000A5F90D210120FFF7E7FE4FF40053BB60C4
:1003C0000123BB7300233B7310237B7307F10803E6
:1003D000184600F0E5FA28233B7100237B710123C6
:1003E000BB710123FB713B1D184600F07DFB00BF74
:1003F0001837BD4680BD00BF0004024080B586B0FE
:1004000000AF0121022000F03DF901214FF48040AE
:1004100000F056F900233B750023BB754FF4804371
:100420003B610123FB7503237B7507F1100319461C
:10043000124800F063F90E210120FFF7A5FE4FF4EA
:100440008043BB600123BB7300233B7310237B738A
:1004500007F10803184600F0A3FA28233B71002394
:100460007B710123BB710123FB713B1D184600F01A
:100470003BFB00BF1837BD4680BD00BF00040240F3
:1004800080B58CB000AF4FF4006000F0FBFA03467B
:10049000002B2AD00023FB6220E04FF480516048FB
:1004A00000F0BAF90023BB6202E0BB6A0133BB6211
:1004B000BB6A5C4A9342F8DD4FF48051584800F023
:1004C000B9F900237B6202E07B6A01337B627B6ABD
:1004D000544A9342F8DDFB6A0133FB62FB6A042B4A
:1004E000DBDD4FF4006000F0F1FA4FF4805000F0D3
:1004F000C9FA0346002B2AD000233B6220E04FF4C8
:100500000051474800F088F90023FB6102E0FB69D5
:100510000133FB61FB69434A9342F8DD4FF400511C
:100520003F4800F087F90023BB6102E0BB6901335B
:10053000BB61BB693B4A9342F8DD3B6A01333B62D6
:100540003B6A042BDBDD4FF4805000F0BFFA4FF420
:10055000005000F097FA0346002B2AD000237B615D
:1005600020E04FF480412E4800F056F900233B6113
:1005700002E03B6901333B613B692A4A9342F8DD63
:100580004FF48041264800F055F90023FB6002E05B
:10059000FB680133FB60FB68224A9342F8DD7B690C
:1005A00001337B617B69042BDBDD4FF4005000F0ED
:1005B0008DFA4FF4804000F065FA0346002B2AD0F4
:1005C0000023BB6020E04FF40041154800F024F9FF
:1005D00000237B6002E07B6801337B607B68114A0B
:1005E0009342F8DD4FF400410D4800F023F9002359
:1005F0003B6002E03B6801333B603B68094A934241
:10060000F8DDBB680133BB60BB68042BDBDD4FF456
:10061000804000F05BFA00BF3037BD4680BD00BFB0
:10062000000C02403F420F0080B582B000AF0121B4
:10063000082000F027F84FF470433B600023BB71A3
:1006400003237B710023FB7101233B713B46194659
:10065000034800F053F800BF0837BD4680BD00BF17
:10066000000C024080B500AF00F0F2F8FFF7DCFFAD
:10067000FFF740FEFFF780FEFFF7C0FEFFF7F8FD33
:10068000FEE700BF80B483B000AF78600B46FB701C
:10069000FB78002B06D00949084B1A6B7B68134383
:1006A0000B6306E00549054B1A6B7B68DB4313407F
:1006B0000B6300BF0C37BD4680BC7047003802405A
:1006C00080B483B000AF78600B46FB70FB78002BE2
:1006D00006D00949084B5A6C7B6813434B6406E00B
:1006E0000549054B5A6C7B68DB4313404B6400BFE4
:1006F0000C37BD4680BC70470038024080B487B0DC
:1007000000AF7860396000237B6100233B610023E8
:10071000FB6000237B6176E001227B6902FA03F330
:100720003B613B681A683B691340FB60FA683B69B0
:100730009A4265D17B681A687B695B00032101FAE4
:1007400003F3DB431A407B681A607B681A683B68D6
:100750001B7919467B695B0001FA03F31A437B6836
:100760001A603B681B79012B03D03B681B79022B75
:100770002ED17B689A687B695B00032101FA03F341
:10078000DB431A407B689A607B689A683B685B79B8
:1007900019467B695B0001FA03F31A437B689A6090
:1007A0007B685A687B699BB2012101FA03F3DB4342
:1007B0001A407B685A607B685A683B689B79194687
:1007C0007B699BB201FA03F39BB21A437B685A60C0
:1007D0007B68DA687B699BB25B00032101FA03F353
:1007E000DB431A407B68DA607B68DA683B68DB7958
:1007F00019467B695B0001FA03F31A437B68DA60F0
:100800007B6901337B617B690F2B85D900BF1C3766
:10081000BD4680BC704700BF80B483B000AF786035
:100820000B467B807B687A881A8300BF0C37BD46F5
:1008300080BC704780B483B000AF78600B467B808B
:100840007B687A885A8300BF0C37BD4680BC7047EE
:1008500080B500AF124A124B1B6843F001031360CE
:100860000F4B00229A600E4A0D4B1B6823F08473D5
:1008700023F4803313600A4B0A4A5A60084A084B33
:100880001B6823F480231360054B0022DA6000F01C
:100890000DF8054B4FF000629A6000BF80BD00BFAD
:1008A000003802401030002400ED00E080B483B036
:1008B00000AF00237B6000233B60354A344B1B684C
:1008C00043F480331360324B1B6803F400333B6006
:1008D0007B6801337B603B68002B03D17B68B3F5F9
:1008E000A06FF0D12A4B1B6803F40033002B02D019
:1008F00001233B6001E000233B603B68012B42D1B8
:10090000234A234B1B6C43F080531364214A214B31
:100910001B6843F4804313601D4A1D4B9B68936022
:100920001B4A1B4B9B6843F400439360184A184BC7
:100930009B6843F4A0539360154B174A5A60144ABE
:10094000134B1B6843F08073136000BF104B1B6890
:1009500003F00073002BF9D0104B40F205621A60CF
:100960000B4A0B4B9B6823F003039360084A084B28
:100970009B6843F00203936000BF054B9B6803F044
:100980000C03082BF9D100BF0C37BD4680BC704763
:10099000003802400070004019544007003C0240FB
:1009A00080B485B000AF78600023FB60344BFB60FF
:1009B0007B689B79002B4FD03149314B1A687B689B
:1009C0001B68DB4313400B602D492D4B5A687B6835
:1009D0001B68DB4313404B607B681B791A46FB683E
:1009E0001344FB60FB68FA6811687A6812680A436E
:1009F0001A602349224B9A687B681B68DB431340CB
:100A00008B601F491E4BDA687B681B68DB43134011
:100A1000CB607B685B79102B0ED11949184B9A6813
:100A20007B681B6813438B601549154BDA687B683C
:100A30001B681343CB601DE0114BFB607B685B7947
:100A40001A46FB681344FB60FB68FA6811687A6811
:100A500012680A431A600DE07B681B791A46FB682E
:100A60001344FB60FB68FA6811687A681268D24325
:100A70000A401A6000BF1437BD4680BC704700BFF3
:100A8000003C014080B485B000AF78600023FB7368
:100A90000023BB600C4B1A687B681340BB600A4B99
:100AA0005A697B681340002B05D0BB68002B02D02D
:100AB0000123FB7301E00023FB73FB7B1846143713
:100AC000BD4680BC704700BF003C014080B483B08D
:100AD00000AF7860034A7B68536100BF0C37BD46A6
:100AE00080BC7047003C014080B485B000AF7860A6
:100AF0000023FB730023BB730F237B737B68DB78BE
:100B0000002B38D0264BDB68DB4303F4E0631B0A81
:100B1000FB73FB7BC3F10403BB737A7BFB7B42FA61
:100B200003F37B737B685B781A46BB7B02FA03F3A3
:100B3000FB737B689A787B7B1340DAB2FB7B1343B1
:100B4000FB73FB7B1B01FB73164A7B681B7813440A
:100B5000FA7B83F80023134A7B681B785B09DBB2BE
:100B600018467B681B7803F01F03012101FA03F389
:100B700042F820300FE00B497B681B785B09DBB241
:100B800018467B681B7803F01F0301229A4000F18E
:100B9000200341F8232000BF1437BD4680BC7047B6
:080BA00000ED00E000E100E0BF
:0400000508000000EF
:00000001FF
